:020000040800F2
:10000000004F002081020008E3200008D11D0008F5
:10001000E1200008850800086129000800000000B0
:10002000000000000000000000000000A101000826
:100030008708000800000000FD010008B92300083F
:100040009B0200089B0200089B0200089B0200081C
:100050009B0200089B0200089B0200089B0200080C
:100060009B0200089B0200089B0200089B020008FC
:100070009B0200089B0200089B0200089B020008EC
:100080009B0200089B0200089B0200089B020008DC
:100090009B0200089B0200089B02000889080008D8
:1000A0009B020008552400089B0200089B020008E0
:1000B0009B02000800000000000000009B020008F6
:1000C0009B0200089B0200089B0200089B0200089C
:1000D0009B0200089B0200089B0200089B0200088C
:1000E0009B0200089B0200080000000000000000C6
:1000F0000000000000000000000000000000000000
:10010000000000009B020008000000009B020008A5
:1001100000000000000000009B0200089B02000895
:100120009B0200089B0200089B0200089B0200083B
:100130009B0200080000000000000000000000001A
:100140009B0200089B0200089B0200089B0200081B
:100150009B0200089B0200089B0200089B0200080B
:100160009B0200089B0200089B02000800000000A0
:100170009B0200089B0200089B0200080000000090
:100180009B0200089B0200089B020008DFF80CD0CD
:1001900000F0E6FA00480047B5320008004F0020A2
:1001A0002C4B1968086800F05AB880F30988BFF32F
:1001B0006F8F4FF0000080F311887047000000003F
:1001C00008480068006880F308884FF0000080F35A
:1001D000148862B661B6BFF34F8FBFF36F8F00DF35
:1001E00000BF00BF08ED00E0DFF80C00016841F43B
:1001F00070010160704700BF88ED00E0EFF30980F7
:10020000BFF36F8F134B1A681EF0100F08BF20ED5D
:10021000108A20E9F04F106009B44FF0500080F3CD
:100220001188BFF34F8FBFF36F8F03F061FF4FF063
:10023000000080F3118809BC1968086800F014B840
:100240001EF0100F08BF00F014B880F30988BFF348
:100250006F8F704714000020EFF30580704730C89F
:10026000B0E8C04FFFF7A1BF30C8B0E8C04FFFF7FC
:10027000E7BFB0EC088AB0EC08CAFFF7E6BF0000A1
:100280000648804706480047FEE7FEE7FEE7FEE730
:10029000FEE7FEE7FEE7FEE7FEE7FEE7452400088F
:1002A0008D0100082DE9F05F0546002092469B462F
:1002B00088460646814640241BE02846414647467C
:1002C000224600F07AF853465A46C01A914110D39C
:1002D00011461846224600F061F82D1A67EB010816
:1002E0004F4622460120002100F058F817EB000984
:1002F0004E41201EA4F10104DFDC484631462A4667
:10030000434600F000B830BCBDE8C09F10B5431AAA
:10031000934209D28318881803E010F8011D03F8EE
:10032000011D521EF9D210BD40EA01039B0703D004
:1003300009E008C9121F08C0042AFAD203E011F824
:10034000013B00F8013B521EF9D210BDD2B201E0D0
:1003500000F8012B491EFBD270470022F6E710B5CA
:1003600013460A4604461946FFF7F0FF204610BD23
:1003700030B50B46014600202022012409E021FA75
:1003800002F59D4205D303FA02F5491B04FA02F572
:100390002844151EA2F10102F1DC30BD202A04DB45
:1003A000203A00FA02F1002070479140C2F1200388
:1003B00020FA03F3194390407047202A04DB203AC7
:1003C00021FA02F00021704721FA02F3D040C2F175
:1003D000200291400843194670472DE9FE4F8046A0
:1003E00081EA0300C00F0C46009021F0004123F089
:1003F0000045B8EB0200A94105D24046214690468F
:100400001C460B46024623F00040104347D0270D00
:10041000C7F30A00C3F30A510290401A0190402822
:100420006BDAC3F3130040F4801B0098924620B1AE
:100430000023D2EB030A63EB0B0B01985946C0F182
:1004400040025046FFF7AAFF06460D465046594661
:10045000019A00F097F910EB08006141002487EA47
:10046000115284EAE7731A4340D0009A62B3019AAA
:10047000012A4FEA075215DC001B61EB02014FF025
:10048000004202EA0752CDE90042001C41F580110A
:1004900032462B4600F097F903B000F045B84046CD
:1004A0002146F9E7001B61EB0201001C41F58013B6
:1004B00000185B412018A2F5001747EB030140EA42
:1004C000D570B6196D4111E06D084FEA360645EA60
:1004D000C0754FEA0752001B61EB0201001C41F599
:1004E000801149084FEA30000019514132462B462D
:1004F00003B000F01CB800F057B90098012240008A
:100500000023D0EB020263EBE073009821464FEA30
:10051000E074B8EB000061EB0401E9E783F000430D
:100520005BE781F0004158E730BCBDE8C08F30BCCC
:10053000BDE8C04FFFF7DFBF2DE9FE4F81EA03049E
:1005400004F0004421F0004100944FF0000B23F030
:10055000004350EA01045ED052EA03045BD0C3F3C7
:100560000A54C1F30A552C44A4F2F3340194A0FBBD
:100570000254C1F3130141F48011C3F3130343F494
:10058000801301FB024400FB034E840A970A44EAED
:10059000815447EA8357A4FB076802958D0A05FB3F
:1005A00007854FEA932C04FB0C542705029D4FEA64
:1005B000065847EA1637B5EB08056EEB070C870EB1
:1005C000920E47EA811742EA8312A7FB0201B6EBBB
:1005D0000B0164EB00042B0D43EA0C335E1844EB73
:1005E0001C50DA465146E7FB0201C5F313044FEAFB
:1005F0000B3343EA14534FEA0432019C43EA0603E7
:10060000A4F10C040294009CCDE900B400F0DBF8E6
:1006100003B000F003B800200146F9E730BCBDE8A4
:10062000C08F2DE9F04D81EA030404F0004B21F066
:10063000004514464FF0000A23F0004150EA05023D
:1006400020D054EA01021DD0C5F30A570246C5F373
:100650001303C1F31300C1F30A5640F4801543F4A9
:100660008013A7EB0608101BD64608F2FD3873EB83
:10067000050002D308F1010801E092185B41B8F1CE
:10068000000F03DA00200146BDE8F08D00204FF492
:100690008011064684460EE0171B73EB050705D351
:1006A000121B63EB050306434CEA010C49084FEAB1
:1006B000300092185B4150EA0107EDD152EA030085
:1006C00012D082EA040083EA0501084305D0101B1A
:1006D000AB4106D20122002306E000224FF0004386
:1006E00002E06FF0010253101AEB06004CEB0851C8
:1006F00010EB0A0041EB0B01BDE8F04D00F054B8DF
:10070000C1F30A52C1F3130140F2FF3341F48011E7
:100710009A4202DA00200146704740F233439A427F
:10072000A2F2334202DC5242FFF747BEFFF736BE69
:1007300030B5041E71F1000404DB4FF00044404268
:1007400064EB0101141E73F1000405DB1C464FF03D
:100750000043524263EB0403994208BF904230BD0C
:10076000064C074D06E0E06840F0010394E80700FE
:1007700098471034AC42F6D3FFF70CFD404C00080C
:10078000604C0008202A06DBCB17203A41FA02F021
:1007900043EAE07306E041FA02F3D040C2F12002DE
:1007A000914008431946704710B5141E73F10004B8
:1007B00008DA401C41F1000192185B411A4301D153
:1007C00020F0010010BD2DE9F04D92469B4611B17D
:1007D000B1FA81F202E0B0FA80F220329046FFF7DF
:1007E000DDFD04460F4640EA0A0041EA0B0153468C
:1007F0005A46084313D0114653EA010019D0C8F1F4
:1008000040025046FFF7D9FD05460E465046594670
:100810004246FFF7C3FD084305D0012004E020460F
:100820003946BDE8F08D0020054346EAE0762C43CA
:1008300037430A986305E40AA0EB08000022FD0A8A
:1008400044EA47540A3002D500200146E9E7010591
:1008500010196941DDE9084500196941BDE8F04D0D
:10086000A2E7000001225102014800F019B900007E
:100870000008004800224FF40071014800F010B950
:1008800000080048FEE770474FF4807000F004B89D
:1008900072B6FEE770470000044910B50A680242CC
:1008A00002D00860FFF7F6FF10BD000014040140FD
:1008B0002DE9F04FDFF8AC9100230325A9F1040BDB
:1008C00085B04FF0010C0F2709F1040AABF1040EBB
:1008D000BFE000BF0CFA03F6324075D00C7904F08B
:1008E0000304012C01D0022C1BD1846800945C000D
:1008F00005FA04F80494009C24EA08040094D1F852
:100900000C80049C08FA04F8009C48EA0408C0F82B
:1009100008804468B4430E79C6F300169E4026430F
:1009200046600C79E443A4070AD0C4684FEA430840
:1009300005FA08F6B4438E6806FA08F62643C66040
:100940000C7904F00304022C10D1DC0800EB8404C1
:100950000294246A5E074FEAD66807FA08F6B443A1
:100960000E6906FA08F62643029C266204684FEADE
:10097000430805FA08F6B4430E7906F0030606FAB2
:1009800008F6264306604C6814F4403F60D0364CAD
:10099000266E46F001062666246E23F0030604F058
:1009A00001040094314C34440294A4689E074FEA39
:1009B000167807FA08F6B443B0F1904F05D02C4EE4
:1009C000B04204D1012612E042E000260FE0294E99
:1009D000B04201D102260AE0274EB04201D10326DF
:1009E00005E0264EB04201D1042600E0072606FAB3
:1009F00008F62643029CA660D9F800604C46D1F860
:100A0000048096435FEAC82800D516432660DAF8CA
:100A100000405646D1F8048094435FEA882800D508
:100A200014433460DBF800405E46D1F80480944300
:100A30005FEA883800D514433460DEF8004076461B
:100A4000D1F8048094435FEAC83800D51443346079
:100A50005B1C0A6832FA03F47FF43CAF05B000F087
:100A60000FB80000080401400010024000000140DF
:100A70000004004800080048000C0048001000482E
:100A800030BCBDE8C08F0069084000D0012070472D
:100A9000426921EA02030A4043EA02418161704748
:100AA0000AB1816170478162704700000148806827
:100AB000704700000400002090F84120202A24D133
:100AC00090F84020012A20D0012280F840202422E2
:100AD00080F841200268136823F001031360026864
:100AE000136823F480531360026813680B43136088
:100AF00001680A6842F001020A60202180F8411072
:100B0000002180F84010084670470220704790F896
:100B10004120202A22D190F84020012A1ED0012213
:100B200080F84020242280F841200268136823F0D6
:100B3000010313600268136823F4706343EA012120
:100B4000116001680A6842F001020A60202180F801
:100B50004110002180F8401008467047022070477D
:100B600070B5040004D094F84100002510B106E0EF
:100B7000012070BD84F84050204600F04FF824203A
:100B800084F841002068016821F00101016060687B
:100B9000216820F0706008612068816821F40041BC
:100BA0008160E0680128A06830D040F404402168EA
:100BB0008860E0680228206841682AD021F400613A
:100BC000416020684168144A114341602068C1684F
:100BD00021F40041C160D4E904010843A16940EA5D
:100BE00001202168C860D4E9070108432168086032
:100BF0002068016841F0010101606564202084F8EB
:100C00004100256384F84250002070BD40F400404C
:100C1000CDE741F40061D3E7008000022DE9F04107
:100C20009EB00446142118A8FFF797FB6021684680
:100C3000FFF793FB2B4920682B4C12270325002636
:100C40004FF00408884224D1802000900D96684619
:100C500000F046F908B1FFF71BFEE06C40F002001F
:100C6000E064E06C1AAA00F002001D904FF44060AE
:100C7000CDE91807012082E8210118A91B48FFF7D8
:100C800017FEA06D40F48000A065A06D00F4800008
:100C900023E01749884221D1801500900E966846BE
:100CA00000F01EF908B1FFF7F3FDE06C40F004001E
:100CB000E064E06CCDE9185700F00400CDE91C8039
:100CC000CDE91A6518A90B48FFF7F2FDA06D40F4B5
:100CD0000000A065A06D00F400001D901EB0BDE8EE
:100CE000F08100000058004000100240000400485D
:100CF000005C004000080048024881680278114406
:100D0000816070470400002010B50024032000F02B
:100D100099F80F2000F008F808B1012401E000F074
:100D200049F8204610BD000030B505461C4887B084
:100D3000016E41F400310166006E06A900F4003036
:100D4000009001A800F0E6FA00F016FB1549164ADB
:100D5000B0FBF1F11548491E0260416040F2E732F4
:100D60000021C0E903218160816100F01CFE0400C4
:100D700012D10E4800F04AFE04000DD1192000F0F7
:100D800033F8102D07D200222946192000F03AF836
:100D90000748056000E0012407B0204630BD000090
:100DA0000010024040420F0000440140E0010020DA
:100DB000080000200B4882B0016E41F0010101667D
:100DC000016E01F001010091816D41F0805181655A
:100DD000806D002200F0805000900F21901E02B024
:100DE00000F010B800100240002809DB00F01F02DC
:100DF000012191404009800000F1E020C0F800117D
:100E000070470000F0B40E4B1B680C46C3F302237E
:100E1000C3F10705042D00D90425191D072901D2A6
:100E2000002300E0DB1E012606FA05F1491E2140E1
:100E300099409E40761E16403143F0BC01F0A2BDA1
:100E40000CED00E0064900F0070208684FF6FF03CA
:100E5000184040EA0220034A10430860704700002F
:100E60000CED00E00000FA051649B0F5007F0868B7
:100E7000C0F3412009D0022805D0086820F4C060E2
:100E800040F480600860002070470128FBD00868AB
:100E900020F4C06040F4007008600B483222006803
:100EA00050430A4AB0FBF2F0401C00E0401E4A6981
:100EB000520501D50028F9D148694005E3D5032042
:100EC00070470000007000401000002040420F00FA
:100ED0000248006800F4C0607047000000700040E5
:100EE0002DE9F84F044600270088B54D3E46000521
:100EF00015D5606C60B1B0F5000F04D0B0F5400FAF
:100F00002BD001270AE0E86840F48030E86024E054
:100F10000021201D01F022F907001ED03E46206866
:100F200080033AD5A86D4FF00008C00009D4A86D21
:100F300040F08050A865A86D4FF0010800F0805087
:100F40000090DFF880A2DAF8001041F48071CAF84E
:100F50000010FFF7ABFD814610E0D5F88800616C0A
:100F600020F440000843C5F88800D8E7FFF79EFD4D
:100F7000A0EB0900022801D9032705E0DAF80000F8
:100F8000C005F3D5002F7DD04FEA0706B8F1000F5A
:100F900003D0A86D20F08050A8652078C00707D046
:100FA000D5F88800216A20F003000843C5F88800BE
:100FB0002078800707D5D5F88800616A20F00C00FA
:100FC0000843C5F888002078400707D5D5F8880081
:100FD000A16A20F030000843C5F888002078800618
:100FE00007D5D5F88800E16A20F440600843C5F8C9
:100FF00088002088800507D5D5F88800E16B20F4AB
:1010000040200843C5F888002088400507D5D5F85A
:101010008800216C20F440100843C5F8880020782F
:10102000400607D5D5F88800216B20F440500843CE
:10103000C5F888002078000607D5D5F88800616BD0
:1010400020F440400843C5F888002088C00507D533
:10105000D5F88800A16B20F440300843C5F888001B
:1010600020884FF0006780044FF0806850D5D5F895
:101070008800A16C20F040600843C5F88800A06C8F
:10108000B84200E005E03BD1E86840F48010E86039
:101090003EE0D5F8900010F4407014D0E16D81422C
:1010A00011D0D5F89000D5F8901020F4407041F49C
:1010B0008031C5F89010D5F8901021F48031C5F832
:1010C0009010C5F89000C00711D0FFF7EFFC07465D
:1010D00041F2883907E000BFFFF7E8FCC11B494532
:1010E00001D9032652E7D5F890008007F4D5D5F84A
:1010F0009000E16D20F440700843C5F8900045E78A
:10110000404505D10121201D01F028F800B1064617
:101110002068000317D5D5F88800E16C20F0406006
:101120000843C5F88800E06CB84204D1E86840F490
:101130008010E86007E0404505D10121201D01F045
:101140000DF800B106462068400317D5D5F8880091
:10115000216D20F040600843C5F88800206DB8423A
:1011600004D1E86840F48010E86007E0404505D10C
:101170000121201D00F0F2FF00B106462088400446
:1011800011D5D5F88800616D20F040500843C5F8AE
:101190008800606DB0F1805F05D10221201D00F054
:1011A000DDFF00B106462088000406D555F8880FFB
:1011B000A16D20F0804008432860304600F004B85C
:1011C000001002400070004018BCBDE8E08F000035
:1011D0002DE9F0470F4605006BD0494E306800F00E
:1011E0000700B84209D2306820F007003843306069
:1011F000306800F00700B8425BD12878414C800786
:101200000AD5A868A16801F0F001884204D9A16854
:1012100021F0F0010143A1602878C0072CD0686854
:10122000032811D0022812D0216898B1490500295D
:101230003FDAA16821F003010143A160FFF736FC0A
:10124000804641F2883910E021688901EFE7216882
:101250008903ECE78907EAE7FFF728FCA0EB080120
:10126000494502D90320BDE8F087A068696800F00D
:101270000C00B0EB810FEFD1287880070AD5A86861
:10128000A16801F0F001884204D2A16821F0F001C8
:101290000143A160306800F00700B8420BD9306804
:1012A00020F0070038433060306800F00700B84293
:1012B00001D00120D7E72878400705D5A068E96864
:1012C00020F4E0600843A0602878000706D5A068F5
:1012D000296920F4605040EAC100A06000F05EF887
:1012E000A168094AC1F30311515C01F01F01C84014
:1012F0000649086006480068BDE8F047FFF714BDDE
:101300000020024000100240C84B000810000020DE
:10131000080000200F2202600C4A936803F00303C8
:101320004360936803F0F0038360936803F4E06321
:10133000C36092684FF4E06303EAD202026104489A
:10134000006800F0070008607047000000100240CD
:10135000002002400548064900688968054AC1F333
:101360000221515C01F01F01C840704710000020AD
:1013700000100240084C00080548064900688968CA
:10138000054AC1F3C221515C01F01F01C8407047FA
:101390001000002000100240084C000870B52549DC
:1013A000002318468A68CC6812F00C0204F0030689
:1013B000214C4FEA640509D00C2A05D0042A32D00A
:1013C000082A00D1284670BD012E10D10B681B07DA
:1013D00004D4D1F89430C3F3032302E00B68C3F3C1
:1013E0000313164E56F82330DAB10C2AEBD1C86835
:1013F00000F00300022818D0032818D01846CA6845
:10140000CB68C2F30212C3F306234343521CB3FB5F
:10141000F2F2C868C0F34160401C4000B2FBF0F03B
:1014200070BD184670BD204670BD2046E7E72846CF
:10143000E5E70000001002400024F400D84B00084B
:101440002DE9F84304006FD0FA4DA86800F00C06AF
:10145000E86800F003072078C00664D576B10C2E4A
:1014600001D1012F0AD0A069002828687AD040F065
:1014700001002860FFF71AFB80465DE028688007BE
:1014800002D5A0690028DED0216A2868000703D5AC
:10149000286800F0F00004E0D5F89400F02202EA99
:1014A0001010814216D9084600F0EEFE00283BD10C
:1014B000286840F0080028602868216A20F0F000C1
:1014C000084328606868E16920F47F4040EA012011
:1014D000686016E0286840F0080028602868216AE3
:1014E00020F0F000084328606868E16920F47F403C
:1014F00040EA0120686026B9206A00F0C5FE002895
:10150000D5D1FFF74BFFA968CB4AC1F30311515C5A
:1015100001F01F01C840C9490860C9480068FFF7C9
:1015200003FC00287ED12EE0CAE000BFFFF7BEFA20
:10153000A0EB0800022876D828688007F6D528682E
:1015400040F0080028602868216A20F0F000084375
:1015500028606868E16920F47F4040EA0120686003
:1015600011E0FFE720F001002860FFF79FFA8046B6
:1015700006E000BFFFF79AFAA0EB08000228DAD8CD
:1015800028688007F6D42078C00740D0082E18D0ED
:101590000C2E01D1032F14D06068B0F5803F17D016
:1015A000B0F5A02F286817D020F480302860286874
:1015B00020F4802028606068E0B1FFF777FA804669
:1015C00014E02868800322D56068002878D01EE0E7
:1015D000286840F48030EDE740F480202860F7E789
:1015E000FFF764FAA0EB08006428A4D828688003F9
:1015F000F6D50CE0FFF75AFA804605E0FFF756FAF9
:10160000A0EB0800642896D828688003F6D42078D8
:1016100080073BD5042E11D00C2E01D1022F0DD006
:10162000E06801E0AAE1FFE0002828681ED040F44D
:1016300080702860FFF73AFA07460CE028684005FA
:101640000CD5E0680028C1D008E000BFFFF72EFAF3
:10165000C01B022893D828684005F7D56868217C0C
:1016600020F0F85040EA016068600FE020F48070DC
:101670002860FFF71BFA074605E000BFFFF716FAE0
:10168000C01B0228B1D828684005F7D4207800078D
:1016900029D560690028D5F8940012D040F00100E7
:1016A000C5F89400FFF702FA074604E0FFF7FEF9D9
:1016B000C01B022899D8D5F894008007F6D512E00F
:1016C0002BE120F00100C5F89400FFF7EFF9074681
:1016D00005E000BFFFF7EAF9C01B022885D8D5F85E
:1016E00094008007F6D42078400766D5A86D0027BF
:1016F000C00008D4A86D40F08050A865A86D0127EF
:1017000000F0805000904F480168C90512D401686C
:10171000814641F480710160FFF7C8F9804605E019
:10172000FFF7C4F9A0EB080002287DD8D9F8000023
:10173000C005F5D5A068012816D00528D5F8900079
:1017400017D020F00100C5F89000D5F8900020F0E7
:10175000040000BFC5F89000A06841F28839C0B10C
:10176000FFF7A4F980460FE0D5F8900040F00100A3
:10177000F0E740F00400C5F89000F5E7FFF796F9B0
:10178000A0EB080149454FD8D5F890008007F5D562
:101790000EE0FFF78BF9804606E000BFFFF786F901
:1017A000A0EB080149453FD8D5F890008007F5D453
:1017B0001FB1A86D20F08050A8652078800628D53C
:1017C000606A0028D5F8980012D040F00100C5F8F2
:1017D0009800FFF76BF9074605E000BFFFF766F9D1
:1017E000C01B022820D8D5F898008007F6D510E055
:1017F00020F00100C5F89800FFF758F9074604E00B
:10180000FFF754F9C01B02280ED8D5F898008007BE
:10181000F6D4A06AF0B3022816D00C2E7DD028682A
:1018200020F08070286000E0A7E0FFF73FF9044651
:10183000A6E0000000100240C84B00081000002085
:101840000800002000700040E868E26A00F0030130
:10185000914228D1216B00F07002090110399142A8
:1018600021D1626B00F4FE41B1EB022F1BD194F841
:10187000382000F07841B1EBC26F14D1A18F00F491
:10188000C00249084905A1F5001191420BD194F815
:10189000401000E06AE04908490600F0C060A1F18C
:1018A000007181424BD00C2E73D02868400170D457
:1018B000286820F080702860FFF7F8F8064604E0FA
:1018C000FFF7F4F8801B022857D828688001F7D466
:1018D000F4E90B016FF00F0202EB01110843218ABA
:1018E0005204490802EB4151A26841EA022108432F
:1018F000217D4FF07E42490802EB41610843217B84
:1019000040EAC160E968244A11400843E860286859
:1019100040F080702860E86800E03AE040F08070B5
:10192000E860FFF7C3F8044605E000BFFFF7BEF824
:10193000001B022821D828688001F7D527E02868F5
:10194000800124D4286840F080702860E86840F066
:101950008070E860FFF7AAF8044604E0FFF7A6F8F5
:10196000001B022809D828688001F7D50FE000BFC6
:10197000FFF79CF8001B022802D90320BDE8F8837A
:1019800028688001F4D4E86804490840E860002031
:10199000F4E70120F2E700008C809D01FCFFEEFEE1
:1019A00070477047704710B5040003D094F83D00AD
:1019B00010B107E0012010BD002084F83C00204653
:1019C00000F022F8022084F83D00211D206800F07C
:1019D00047FD012084F8480084F83E0084F83F0069
:1019E00084F8400084F8410084F8420084F8430001
:1019F00084F8440084F8450084F8460084F84700E1
:101A000084F83D00002010BD7047000090F83D10A4
:101A1000012901D001207047022180F83D100168A2
:101A2000CA6842F00102CA6000680B49884205D0CA
:101A3000B0F1804F02D00949884207D18168084A35
:101A40001140062906D0B1F5803F03D0016841F06E
:101A50000101016000207047002C0140004001405E
:101A60000700010070472DE9F04104460068C66890
:101A700005694FF00007A90713D5B10711D5F91E65
:101A8000016101202077206880698007204602D00C
:101A9000FFF7E8FF04E000F08BF8204600F089F83B
:101AA0002777680716D5700714D521686FF00400F2
:101AB0000861022020772068806910F4407F20466A
:101AC00002D0FFF7CFFF04E000F072F8204600F0EC
:101AD00070F82777280715D5300713D521686FF0E0
:101AE00008000861042020772068C069800720462C
:101AF00002D0FFF7B7FF04E000F05AF8204600F0EC
:101B000058F82777E80616D5F00614D521686FF047
:101B100010000861082020772068C06910F4407F19
:101B2000204602D0FFF79EFF04E000F041F8204677
:101B300000F03FF82777E80708D0F00706D02168C3
:101B40006FF001000861204600F034F8280601D447
:101B5000A80408D5300606D521686FF40250086144
:101B60002046FFF71EFFE80508D5300606D5216898
:101B70006FF4807008612046FFF712FF680608D5F1
:101B8000700606D521686FF040000861204600F01D
:101B90001BF8A8060AD5B00608D521686FF020000A
:101BA00008612046BDE8F041FFF7FCBEBDE8F081CA
:101BB0007047704700680349884201D1FFF79CB81D
:101BC0007047000000440140704710B5040002D087
:101BD000E06F10B107E0012010BD002084F878000C
:101BE000204600F025F82420E0672068016821F0F5
:101BF00001010160606A10B1204600F089FC2046B6
:101C000000F064FD0128E7D02068416821F490418C
:101C100041602068816821F02A01816020680168A4
:101C200041F0010101602046BDE8104000F0D4BC45
:101C300010B59EB00446142118A8FEF78EFB602153
:101C40006846FEF78AFB17492068884227D10120A1
:101C50000024009008946846FFF742F908B1FEF7A7
:101C600017FE1148016E41F480410166016E01F4D6
:101C700080411D91C16C41F00201C164C06C18A982
:101C800000F002001D90C02018900220CDE9190438
:101C900003201B9007201C900448FEF709FE1EB08D
:101CA00010BD000000380140001002400004004850
:101CB0002DE9F8430446C06F984616460D46202885
:101CC00002D00220BDE8F88395B18EB10020C4F89F
:101CD00084002120E067FEF7E9FEA4F85060814609
:101CE000A4F85260A0682027B0F5805F02D003E01E
:101CF0000120E7E7206910B12E46002510E00026FC
:101D00000EE08021204600F0E1FDC0B9D6B116F802
:101D1000010B21680885B4F85200401EA4F8520057
:101D2000B4F852004B464FF00002CDF80080002876
:101D3000E7D14FF04001204600F0C8FD38B1E76719
:101D40000320BFE735F8020BC0F30800E1E7E767BF
:101D50000020B7E710B50D490DA000F003FE0E4CB2
:101D6000A07840B10DA000F0FDFD00F0BBF9FEF73A
:101D700079FD002007E000F0BDF9FEF77BFD0EA025
:101D800000F0F0FD0120A07010BD00001D4C000807
:101D900025732B2B0D0A0000A800002053797374C3
:101DA000656D2053687574646F776E20496E697431
:101DB00069617465640D0A0053797374656D206FF1
:101DC00070656E20496E697469617465640D0A00FE
:101DD000FEE7000008B50B4D4FF0FF342246694680
:101DE000286802F0EFFB0028F8D09DF800000128D9
:101DF00004D00228F2D1FFF7ADFFEFE700F06CFB53
:101E0000ECE70000A40000201CB502F01BFDDFF889
:101E1000AC8001264FF090454FF4FA6700900821FE
:101E20002846FEF730FE040042D1012E40D1142096
:101E300002F064F808212846FEF725FE040037D199
:101E400002F000FD064619E002F0FCFC801BB842DF
:101E500014D302208DF8040000231A4601A9D8F8F3
:101E6000000002F09FFA02E0142002F047F8082177
:101E70002846FEF708FE0028F6D005E0082128468F
:101E8000FEF701FE0028DFD002F0DCFC801BB84228
:101E90000ED202F0D7FC801B642809D301208DF8F4
:101EA000040000231A4601A9D8F8000002F07AFACB
:101EB00026460A21684602F047F8B0E7A400002051
:101EC00010B500F01FF9054A0021054801F042FA5B
:101ED00004490860BDE8104000F014BAA44B0008A3
:101EE000AD230008000000202DE9F04387B0142145
:101EF0006846FEF732FA3B48C16C41F08001C1648C
:101F0000C16C01F080010591C16C41F00401C16414
:101F1000C16C01F004010591C16C41F00101C16483
:101F2000C16C01F001010591C16C41F00201C16475
:101F3000C16C01F002010591C16C41F00801C1645E
:101F4000C06C4FF0904800F008000590002201217D
:101F50004046FEF7A5FD244F4FF44076012231465E
:101F60003846FEF79DFDDFF88490002204214846A4
:101F7000FEF796FD01240320CDE902400094694656
:101F800001944046FEF794FC08200025CDE90005A9
:101F9000694602944046FEF78BFC0096CDE9014568
:101FA000694638460395FEF783FC200200904FF403
:101FB0008810CDE9010469464046FEF779FC04200B
:101FC0008DE83100694648460395FEF771FC002212
:101FD00005211720FEF716FF1720FEF705FF07B0B3
:101FE000BDE8F0830010024000080048000C0048E3
:101FF000134810B5114901601249416000210122C6
:10200000C0E90212016141618161C1610162FEF7B3
:10201000A7FD08B1FEF73CFC00210948FEF74CFD86
:1020200008B1FEF735FC00210548FEF770FD0028D9
:1020300003D0BDE81040FEF72BBC10BD0058004097
:10204000B0000020EB9B9000144810B512490160CD
:102050001349416000210122C0E90212016141617E
:102060008161C1610162FEF77BFD08B1FEF710FCE2
:102070004FF480510948FEF71FFD08B1FEF708FC38
:1020800000210648FEF743FD002803D0BDE81040BC
:10209000FEF7FEBB10BD0000005C00400401002004
:1020A000411570000D4810B50B4901604FF46121D6
:1020B0004160002181600C22C160C0E9041281618D
:1020C000C16101624162FFF780FD002803D0BDE8D5
:1020D0001040FEF7DDBB10BD003801405801002064
:1020E000FEE7FEE7002204210148FEF7D9BC00000C
:1020F000000C0048012204210148FEF7D1BC000079
:10210000000C004810B500220121032002F0B2F8B3
:102110000749086120B1BDE8104006A000F022BCCC
:1021200009A000F01FFCBDE81040FEF7B1BB0000A5
:1021300094000020B6D3C1D0B4B4BDA8B3C9B9A629
:10214000A3A10D0A00000000B6D3C1D0B4B4BDA84D
:10215000CAA7B0DCA3A10D0A000000002DE9F041E0
:10216000444C05468846E0680026810728680DD063
:10217000E16801F00301814216D1A8B1E068696805
:10218000C0F30210401C88420ED120E0012804D088
:10219000022805D0032807D108E02168890701E05B
:1021A00021684905002907DB01265FE021688903D2
:1021B00002D421684903F5E7E1686A686FF00F030C
:1021C00021F0730103EB021211430143E160206827
:1021D00020F080602060FEF769FC074605E000BF44
:1021E000FEF764FCC01B022837D820680001F7D432
:1021F000B8F1000F18D0B8F1010F1DD0287D4FF0B5
:102200007E41400801EB4060A96840EA0120216955
:10221000194A114008432061206840F08060206026
:10222000FEF744FC07461AE0A868297B000240EA52
:10223000C1602169114AECE7288A1149400801EB85
:102240004050A96840EA012021690E4AE1E700BF39
:10225000FEF72CFCC01B022801D9032606E02068EB
:102260000001F5D52069A969084320613046BDE821
:10227000F081000000100240FF80FFF9FF80FF079F
:102280000000E0FFFF809FFFF8B51C4D06460024CC
:10229000A86DC00002D5FEF71BFE0DE0A86D40F052
:1022A0008050A865A86D00F080500090FEF710FEE9
:1022B000A96D21F08051A965B0F5007F04D0802E72
:1022C00007D94FF003040AE0802E08D9A02E01D8C8
:1022D00004E001D1022402E0702E00D1012408485C
:1022E000016821F0070121430160006800F0070048
:1022F000A04201D00120F8BD0020F8BD001002402E
:10230000002002401CB501F021FD17490220CDE953
:1023100000010023802215A1164802F029FA124973
:102320000320091DCDE900010023802212A11648D7
:1023300002F01EFA0C4904200831CDE90001002307
:10234000802212A1144802F013FA074905200C312B
:10235000CDE900010023802210A1134802F008FA01
:10236000BDE81C4001F012BD940000207461736B45
:1023700031000000893C00086C65645F666C617325
:1023800068696E67000000009D3200086B65795F28
:102390007363616E00000000091E00086B65795FC1
:1023A0006576656E74000000D51D00084FF4FA7460
:1023B000204600F094FFFBE710B54FF0E0200069E5
:1023C00002F032FA012803D0BDE8104001F03CBF12
:1023D00010BD10B596B044216846FDF7BEFF14212C
:1023E00011A8FDF7BAFF4FF40070FEF73DFD08B1EC
:1023F00072B6FEE701210804CDE900100220032493
:102400000A90CDE90B4114210D910721CDE90E1061
:1024100010906846FFF714F808B172B6FEE70F2077
:10242000CDE9110400204FF48061CDE9130115902E
:10243000042111A8FEF7CCFE002801D072B6FEE7F9
:1024400016B010BD0248016841F470010160704788
:1024500088ED00E00148FFF706BB0000E001002026
:1024600070B50268194B4FF08046984201D0B042D7
:1024700003D122F070044A682243154C154D98424E
:1024800005D0B04203D0A04201D0A84203D122F42B
:102490004076CA6832434E6922F0800232430260BD
:1024A0008A68C2620A688262984203D0A04201D060
:1024B000A84201D109690163012141610169C9078C
:1024C00003D0016921F00101016170BD002C0140C0
:1024D000004001400044014010B5074907A000F04A
:1024E00041FA0848417881F001014170BDE810408F
:1024F000014905A000F036BA104C000825732B2BBB
:102500000D0A0000A800002025732D2D0D0A0000E3
:1025100090F82410090706D501684A68436B22F435
:1025200000421A434A6090F82410C90706D0016897
:102530004A68836A22F400321A434A6090F82410F1
:10254000890706D501684A68C36A22F480321A43B3
:102550004A6090F82410490706D501684A68036B61
:1025600022F480221A434A6090F82410C90606D546
:1025700001688A68836B22F480521A438A6090F85B
:102580002410890606D501688A68C36B22F40052BC
:102590001A438A6090F82410490611D501684A68E8
:1025A000036C22F480121A434A60016CB1F5801F5B
:1025B00006D101684A68436C22F4C0021A434A609B
:1025C00090F82410090606D501684A68806C22F448
:1025D000002202434A6070472DE9F8430026044672
:1025E000C0F88460FEF762FA8046206800684FF009
:1025F000200500076FF07E4712D5434600222904CC
:102600002046009700F062F950B1216851E8000FB0
:1026100020F0800041E80002002AF6D1E56721E0C1
:1026200020680068400722D5434600224FF480010D
:102630002046009700F04AF9C8B1216851E8000F20
:1026400020F4907041E80002002AF6D1206808309A
:1026500050E8001F21F0010140E80012002AF5D1E6
:10266000C4F8805084F878600320BDE8F883E567FB
:10267000C4F8805044F8606F666026760020F4E766
:10268000016851E8002F22F4907241E80023002BEA
:10269000F6D10168083151E8002F22F0010241E82B
:1026A0000023002BF5D1016E012908D1026852E800
:1026B000001F21F0100142E80013002BF6D1202169
:1026C000C0F8801000210166816670472DE9F04155
:1026D0000446016880682269E36910436269002545
:1026E0001A431043714F0A68714B1A4002430A6043
:1026F00020684168E26821F440511143416021683B
:10270000A069B94201D0226A10438A6822F430627B
:1027100002438A606749236867488B420DD1D0F82D
:10272000880010F0030006D0012847D0022843D0CB
:10273000032830D144E001212EE060498B420BD1C7
:10274000D0F8880010F00C0034D0042836D00828C7
:1027500032D00C281FD133E059498B420BD1D0F82D
:10276000880010F0300025D0102827D0202823D052
:10277000302810D124E0BB420DD1D0F8880010F4ED
:10278000406017D0B0F5806F18D0B0F5006F13D04F
:10279000B0F5406F14D010214A4A00264FF4004093
:1027A000BB422FD171B102290FD004290FD00829C3
:1027B00073D10FE00021EFE70221EDE70421EBE701
:1027C0000821E9E7FEF7C6FD03E0104602E0FEF748
:1027D000E5FDE8B3626802EB420181425DD8B0EBEF
:1027E000023F5AD8010E0302500818187141002305
:1027F000FDF758FD344AA0F5407191424DD821684B
:10280000C8604BE0E3694FF6EF77834228D109298E
:1028100043D2DFE801F005080B420D4242421000AE
:10282000FEF798FD06E0FEF7A7FD03E0104602E084
:10283000FEF7B4FD60B14100606801EB5001B1FBEF
:10284000F0F0A0F11001B94227D84FF6F07100E086
:1028500024E00140C0F3420001432068C1601DE054
:1028600009291AD2DFE801F005080B190D19191909
:102870001000FEF76FFD06E0FEF77EFD03E0104658
:1028800002E0FEF78BFD48B1616800EB5100B0FB40
:10289000F1F0A0F11001B94205D90125A66628463C
:1028A000E666BDE8F08180B2A9E700000080004044
:1028B000F369FFEF0038014000100240004400407F
:1028C000004800400024F400FFFC0F002DE9F04711
:1028D000994617460D4604464FF00008089E33E01F
:1028E000701C31D0FEF7E2F8A0EB0900B04218D816
:1028F000BEB120680168490726D5802D24D0402D1F
:1029000022D0C169C94309070DD4082505622046B4
:10291000FFF7B6FEC4F8845084F878800120BDE843
:10292000F0870320FBE7C069C04300050CD4216891
:102930004FF4006008622046FFF7A2FE2020C4F892
:10294000840084F87880ECE72068C06935EA0000EC
:1029500004D00020B842C3D00020E0E70120F9E70E
:10296000FEE700000FB4054B10B503A9044A029816
:1029700000F0EEF810BC5DF814FB00008532000892
:10298000AC0000200907090E002804DB00F1E0205C
:1029900080F80014704700F00F0000F1E02080F88C
:1029A000141D704702E008C8121F08C1002AFAD19E
:1029B00070477047002001E001C1121F002AFBD1BF
:1029C000704700002DE9FF5F82B00021DDE904308F
:1029D000020DDDF840B0034318D044F61050A2F2C7
:1029E000FF3242431514119801281FD0A5EB0B00AC
:1029F000401C5FEA000A4FF000064E4FDFF83891A6
:102A0000B046504615D5CAF1000413E011980124D0
:102A10004AA3012801D16FEA0B010298119AC0E97B
:102A20000031C0E9024206B000F08EB8CBF10000E0
:102A3000DFE704460021404A491842EB0450CDE943
:102A4000001012E0E00707D032463B4640464946B8
:102A5000FDF772FD8046894632463B4610461946D0
:102A6000FDF76AFD06460F466410002CEAD1DDE949
:102A70000401DDE90023BAF1000F06DAFDF75CFD81
:102A800042464B46FDF758FD05E0FDF7CAFD4246BC
:102A90004B46FDF7C6FD04460E460022284BFDF7C7
:102AA00047FE03D84FF0FF30014607E00022254BD8
:102AB00020463146FDF791FCFDF722FE102409E087
:102AC000002C0ADB0A220023FDF7ECFB039B3032CB
:102AD0001A55641E50EA0102F2D1641C039AC4F133
:102AE00011031444119A012A03D0012208430DD185
:102AF0000AE0084304D000204FF0110B119072E758
:102B0000A3EB0B056D1E0DE05B4504DD4FF00002ED
:102B100005F1010504E003DA4FF00002A5F101051B
:102B2000002AECD002981199C0E90231C0E90045B1
:102B300079E70000000014400000F03F3000000082
:102B40000000F0430000E03F30BCBDE8C09F000043
:102B50002DE9FF4F95B09B468946064600250FE2BA
:102B6000252877D100242746F84A0121059400E062
:102B7000044316F8013F203B01FA03F01042F7D15D
:102B800030782A2811D06FF02F033078A0F130026E
:102B9000092A16D8059A44F0020402EB820203EBDC
:102BA00042021044761C0590EFE759F8042B059279
:102BB000002A03DA504244F40054059044F0020421
:102BC000761C30782E2816D116F8010F44F0040434
:102BD0002A280DD06FF02F023078A0F13003092B96
:102BE00009D807EB870302EB4303C718761CF3E70A
:102BF00059F8047B761C30786C280FD006DC4C2802
:102C000017D068280DD06A2814D104E0742810D099
:102C10007A280FD10DE044F400140AE044F4801443
:102C200001E044F440147278824202D104F5801429
:102C3000761C761C307866280BD013DC582877D0A9
:102C400009DC002875D04528F6D04628F4D047285E
:102C50001AD19DE118E0632835D0642879D0652821
:102C600012D195E1702873D008DC6728F1D069286B
:102C70006FD06E280DD06F2806D1B5E073282CD008
:102C8000752875D0782874D05A46179990476D1CCE
:102C900075E1C4F30250022809D003280DD0D9F8F9
:102CA000001004280DD00D6009F1040967E1D9F87E
:102CB0000010EA17C1E90052F6E7D9F800100D80BC
:102CC000F2E70D70F0E719F8041B8DF800100020F2
:102CD0008DF80100EA46012003E059F804AB4FF0FB
:102CE000FF3061074FF0000102D40DE008F101014F
:102CF0008846B9420FDA8045F8DB1AF80810002937
:102D0000F4D108E008F1010188468142FADB1AF8A3
:102D100008100029F6D105985B46A0EB080721466C
:102D20003846179A00F097FA284400EB080507E0A8
:102D30004DE029E10DE01AF8010B5A46179990472A
:102D4000B8F10108F7D25B4621463846179A13E1DD
:102D500042E00A220092C4F302524FF0000A022A13
:102D600008D059F804CB032A4FEAEC710AD00DE0E1
:102D700029E02AE009F1070121F00702F2E802C187
:102D8000914609E00FFA8CFC4FEAEC71042A03D15A
:102D90004FFA8CFC4FEAEC71002907DA0A46002151
:102DA000DCF1000C61EB02012D2202E0220504D5CA
:102DB0002B228DF80420012203E0E20701D020221B
:102DC000F7E7904659E00A2102E010220DE01021B9
:102DD0004FF0000A00910BE010224FF0000A44F07F
:102DE00004040827009203E008224FF0000A009232
:102DF000C4F30252022A05D059F804CB0021032A59
:102E000008D009E009F1070121F00702F2E802C148
:102E1000914605E01FFA8CFC042A01D10CF0FF0C4E
:102E20004FF00008220728D5702806D0009B83F0B9
:102E3000100353EA0A0305D00EE040228DF8042067
:102E4000012208E05CEA010206D030228DF804205D
:102E50008DF8050002229046009B83F0080353EA98
:102E60000A030AD15CEA010201D1620705D53022CA
:102E70008DF804204FF001087F1E582804D034A09C
:102E800003900EA802900DE036A0F9E75346604685
:102E9000009AFDF707FA84460398825C0298401E68
:102EA000029002705CEA0100F0D1029806A9081AAB
:102EB00000F1200A600702D524F4803400E00127E5
:102EC000574502DDA7EB0A0000E0002000EB0A01F5
:102ED000009005984144401A0590E00306D45B46F3
:102EE0002146179A059800F0B6F90544002706E038
:102EF00001A85A46C05D179990476D1C7F1C474535
:102F0000F6DBE0030CD55B462146179A059800F0E6
:102F1000A2F9054404E030205A46179990476D1CE9
:102F20000099481E00900029F5DC08E002980299FB
:102F30005A460078491C0291179990476D1CBAF1C6
:102F40000001AAF1010AF1DC65E100000928010095
:102F5000303132333435363738396162636465660F
:102F600000000000303132333435363738394142D1
:102F7000434445460000000000F05BF90544761C20
:102F8000307800287FF4ECAD19B0284600F04EB937
:102F9000620700D4062709F1070222F0070CFCE8BB
:102FA0000223E14603F000485FEA080C02D00FF26A
:102FB000702C0DE05FEA045C02D50FF2682C07E08C
:102FC0005FEAC47C02D00FF2602C01E0AFF2700C1B
:102FD0004FF0FF3823F00043CDF850C065280CD0E7
:102FE00006DC452809D046281DD047283DD13DE0C4
:102FF000662818D067287ED138E00021112F01DB28
:10300000112000E0781CCDE9000106A90EA8FFF709
:10301000D9FCDDE90F010E9A03910021009207F11E
:10302000010A04914DE04FF000400097CDE90110F6
:1030300006A90EA8FFF7C6FCDDE90F0203920E9B5E
:1030400011990022DDF80CA00093049211B9791CAB
:1030500000EB010AB7EB0A0004D4C0F1FF3007F11E
:10306000010A0490AAEB0700019044E0012F00DA66
:1030700001270021112F01DD112000E03846CDE9A4
:10308000000106A90EA8FFF79DFCDDE90F010E9ACD
:103090000391002104910092BA4621070CD40399B0
:1030A000514500DA8A46BAF1010F05DD009AAAF10E
:1030B0000101515C302908D0B84202DA10F1040F46
:1030C00006DA0121CDE9011015E0AAF10101E9E7D5
:1030D000002805DC049901440491AAEB000102E0F8
:1030E000411C514500DD8A460499401A401C01905C
:1030F0004FF000400290200704D40198504501DBB6
:10310000CDF8048000208DF84F0002980DF14F0794
:10311000B0F1004F25D02B200E9002984FF00208FE
:1031200000280CDA404202902D200E9007E00A2180
:103130000298FDF71DF93031029007F8011DB8F132
:103140000001A8F10108F2DC02980028EFD1791EF5
:103150000E980870307800F0200040F0450007F825
:10316000020D12A8C01B00F107081498007800B1E6
:10317000012000EB0A01019801EBE0710598414440
:10318000401A401E0590E00306D45B462146179A7C
:10319000059800F060F805441498007818B15A4674
:1031A000179990476D1CE00324D55B462146179A7A
:1031B000059800F050F805441CE00498002807DB4F
:1031C000DDE90301884203DD0098405C179901E0C6
:1031D000179930205A469047049805F10105401C84
:1031E00004900198401E019004D12E205A46179950
:1031F00090476D1CBAF10001AAF1010ADDDC05E07F
:1032000017F8010B5A46179990476D1CB8F1000149
:10321000A8F10108F4DC5B462146179A0598ABE655
:103220002D0000002B0000002000000030BCBDE895
:10323000C08F2DE9F041044600251E46174688043C
:1032400004D405E039462020B0476D1C641EF9D532
:103250002846BDE8F0812DE9F041044600251E46D0
:103260009046C80301D5302700E02027880404D504
:1032700005E041463846B0476D1C641EF9D5284626
:10328000BDE8F08113B54FF6FF730122694602488D
:10329000FEF70EFD00981CBD580100204FF0904431
:1032A0004FF4FA7501212046FDF7F2FB284600F0A5
:1032B00025FEF7E7FDF728FDFFF78BF8FEF714FE74
:1032C000FEF7F0FEFEF794FEFEF7BEFEFDF7D2FA23
:1032D00000F012F8FEF7F4FD00F020F8FEE710B55C
:1032E000EFF3058111B16FF0050403E0002408B18C
:1032F00000F004FE204610BDEFF3058010B16FF022
:10330000050070470448016811B14FF0FF30704765
:1033100001210160002070476400002010B5EFF328
:10332000058010B16FF0050010BD08480168012943
:1033300002D04FF0FF3010BD054A002182F8141D65
:103340000221016000F088FE002010BD6400002012
:103350000BE000E02DE9FF414FEA01034FF00005CB
:10336000EFF30581039549BB40B380271821002462
:103370004AB3166806B1344696691EB13146761EC8
:10338000382E02D21679F60703D0002004B0BDE82B
:10339000F081566906B1B708D2F808C0BCF1000F39
:1033A0000DD0D5685C2D18D312693AB136B18DE8CD
:1033B00006103A46214601F00BFA03900DE0D6685C
:1033C0005EB912694AB903AACDE90012BAB2214620
:1033D00001F0CEF9012800D003950398D6E700004C
:1033E0002DE9F041134C0F460546E6682068001DA4
:1033F00000F04EFC681C07D137B12168BDE8F041F0
:103400000D48091D00F096BC20683544B542456062
:10341000216805D2A06BBDE8F041091D00F072BC27
:10342000606B091D00F06EFCA06A854200D2A562A7
:10343000BDE8F081140000201C0700202DE9F041B8
:10344000054600F083FC2D4CA068401CA06020685D
:103450002B4F10B1606930B32BE02560A0680128C4
:1034600027D1002606EB860007EB800000F03CFC2D
:10347000761C382EF6D3234800F036FC2148143051
:1034800000F032FC1F48283000F02EFC1D483C3074
:1034900000F02AFC1B48503000F026FC19486063FD
:1034A0001430A06305E02068E96AC06A884200D849
:1034B0002560606A401C60626864E86A216988422D
:1034C00000D9206100EB800007EB8000291D00F08F
:1034D00031FC00F05BFC606900280CD02068E96AD0
:1034E000C06A884207D208494FF080500860BFF395
:1034F0004F8FBFF36F8FBDE8F081000014000020F4
:103500006C020020CC06002004ED00E038B500F08D
:103510001DFC104C2068C8B90F4800F0E5FB0E48B0
:10352000143000F0E1FB0C48E060143020610A4BDD
:103530000020F03B009003F1500210210A2000F01F
:10354000BAFE206010B105A100F0A2FCBDE8384031
:1035500000F01CBC5000002020080020546D725167
:103560000000000030B4026C0B46002A0BD0C1688A
:103570001144C1608468A14201D30168C16030BCBC
:103580001846FCF7C3BE30BC70472DE9F041856B8F
:10359000174604460026026C82B1C7B1E068FCF70A
:1035A000B5FEE168206C091AE1602268914202D2FE
:1035B000A168081AE060022F16D017E02068A8B9A9
:1035C000A06801F0B1F906460020A0600EE0606836
:1035D000FCF79CFE216C606808446060A16888422A
:1035E00004D32068606001E005B16D1E6D1CA56309
:1035F0003046BDE8F08110B5044690F8590058B146
:1036000001280CD002280FD0502080F31188BFF37E
:103610004F8FBFF36F8FFEE7206B00F0CBFB204690
:10362000BDE8104000F0C6BB10BD000010484FF4CC
:103630007051420706D0C01D0D4920F00700411A05
:10364000C1F570510B4A00230144C2E90003083957
:10365000183A21F0070111604B600B600B1AC0E9AA
:10366000001393604FF000405360506170470000BA
:10367000000F002080000020154E164CA6F29C473B
:103680004FF08058DFF8509012E000BF00F05EFB72
:10369000F068C568281D00F0FBFAA068401EA06015
:1036A0006068401E606000F071FB2846FFF7A3FFD2
:1036B00060680028EAD13868012805D9C9F8008077
:1036C000BFF34F8FBFF36F8F00F00CFBF0E70000EC
:1036D000080700201400002004ED00E070B51D462E
:1036E000049C51B1C4F80020C4E90F010121204617
:1036F00000F014FE84F84C5070BD2460F4E7000024
:103700002DE9F05F8846DDE90B941546834691006C
:103710009A460A9EA522206BFCF718FE6FF0030163
:10372000206B01EB8501084420F00707780707D0DC
:10373000502080F31188BFF34F8FBFF36F8FFEE7E8
:103740000025B8F1000F0FD05FF00000221818F824
:10375000001082F8341018F8001011B1401C102825
:10376000F4D384F8435001E084F83450382E00D369
:103770003726E662C4E91365201D00F0C0FA04F1A3
:10378000180000F0BCFA2461C6F138006462A06140
:10379000656584F8585052465946384600F05EFA3E
:1037A0002060B9F1000F01D0C9F8004000F000B866
:1037B00030BCBDE8C09F000030B5114900E01146A3
:1037C0000A688242FBD34B685C18844203D140688C
:1037D00018444860084643681C18944209D1084CB4
:1037E000183C2468A24209D052681A4442600A6810
:1037F00012680260814200D0086030BD0460F9E7C1
:103800008000002070B5002441600B4D00619142A2
:1038100006D8D11A8269914206D2011D286907E0B3
:103820009A4203D2994201D3012403E0011DE868C2
:1038300000F068FA204670BD5000002010B5044624
:1038400000F084FAA06B28B15FF0000400F09EFA4B
:10385000204610BD0124F9E730B589B03C4D6EE03B
:103860000498002806DADDE90601059A90470498D5
:10387000002864DB069C606910B1201D00F008FA86
:1038800003A800F0D7F8024604980A2857D2DFE8C8
:1038900000F00505052D334A05052D3394F8280061
:1038A00040F0010084F828000599A069059B0144B7
:1038B0002046FFF7A7FF68B3216A2046884794F89F
:1038C000280040073BD5002000900598A1690023FF
:1038D00042181946204601F031F9D8B9502080F33A
:1038E0001188BFF34F8FBFF36F8FFEE714F8280FD7
:1038F00020F00100207022E094F8280040F0010040
:1039000084F828000598A06128B181181346204644
:10391000FFF778FF13E0502080F31188BFF34F8F3B
:10392000BFF36F8FFEE794F82800810703D4204689
:1039300000F040FA03E020F0010084F828000022A3
:1039400004A9286800F03EFE002889D109B030BDE6
:10395000500000202DE9FC410F46054600F0C0FB59
:1039600001A800F067F80446019818B101F054F876
:10397000BDE8FC81254EAFB130690068D0B30027A7
:10398000291B3A46306800F097FA01F045F8002804
:10399000EED11F494FF080500860BFF34F8FBFF347
:1039A0006F8FE5E7A542EBD801F036F8F0682746BF
:1039B000C068C468201D00F06BF994F82800410726
:1039C00019D5A0692B4641193A462046FFF71AFF40
:1039D000A8B100200346014600902A46204601F087
:1039E000ADF860B9502080F31188BFF34F8FBFF35B
:1039F0006F8FFEE707E020F0010084F82800216ABD
:103A000020468847B4E70127BAE7000050000020AD
:103A100004ED00E00648416B096829B1416BC968B3
:103A2000C9684968816270474FF0FF31FAE70000CA
:103A30001400002070B5054600F004FF064E044651
:103A4000B068844203D200F009F8012000E00020B1
:103A500028602046B46070BD50000020F8B5194DB4
:103A600020E0C068C4680668201D00F011F9216AD2
:103A70002046884794F82800400713D5A0693044B1
:103A8000B04206D924616060211DE86800F03AF96F
:103A900008E000200346014600903246204601F02F
:103AA0004DF838B1E86801680029DAD12969C5E91B
:103AB0000310F8BD502080F31188BFF34F8FBFF380
:103AC0006F8FFEE75000002008484068401C4FF010
:103AD000500080F3118804D0BFF34F8FBFF36F8F76
:103AE000FEE7BFF34F8FBFF36F8FFEE78800002024
:103AF000074CE068016841B1C0680021D0F80000BF
:103B0000FFF728FFFFF7A8FEF3E701210020F7E702
:103B1000500000202DE9F041044600F017F994F917
:103B2000455004F1240609E0606A48B1304600F0CF
:103B30003BFF08B100F056FA6D1E6DB2002DF3DCAC
:103B40004FF0FF3684F8456000F020F900F0FEF8F1
:103B500094F9445004F1100709E0206948B138464F
:103B600000F022FF08B100F03DFA6D1E6DB2002D8D
:103B7000F3DC84F84460BDE8F04100F007B90000D0
:103B80002DE9F0410546002700F0AAFA324E3068D0
:103B900008B9FFF74BFD706905424ED1C5B3083532
:103BA00068070ED005F00700C0F10800054468075B
:103BB00007D0502080F31188BFF34F8FBFF36F8F72
:103BC000FEE72DB37068854237D823481830014688
:103BD0000C6801E020460C466168A94202D22168C7
:103BE0000029F7D131688C4227D00768216801602D
:103BF00060680837411B10290FD96019420708D0A7
:103C0000502080F31188BFF34F8FBFF36F8FFEE713
:103C100013E041606560FFF7CFFD61687068401A8E
:103C20007060B268904200D2B060706901430020B9
:103C3000C4E90001F068401CF06000F0EDFE780778
:103C400007D0502080F31188BFF34F8FBFF36F8FE1
:103C5000FEE73846BDE8F0816800002010B5031F7C
:103C60004FF080741C601B1F21F001011960191FA7
:103C7000044B0B6014390A60091F6FF002024438CC
:103C80000A6010BDC93A00080A2000F037F9FBE7C6
:103C9000D0E9013201699A60D0E901235A604A688B
:103CA000824201D182684A60002202610868401E97
:103CB0000860086870470000034B036003F15C0074
:103CC000086080201060704748080020044B0360A3
:103CD00003F15C0008604FF48070106070470000D2
:103CE000A40A00207047704700F108014FF0FF322E
:103CF000C0E90112C160016100210160704700212B
:103D00000161704730B50B685A1C02D000F10802FF
:103D100002E0026904E02246546825689D42FAD90F
:103D200053684B6099608A60516008610168491C62
:103D3000016030BD42684A6093688B609368596047
:103D4000916008610168491C01607047502080F350
:103D50001188BFF34F8FBFF36F8F0A494868401C2B
:103D6000486001280CD10848006810F0FF0F07D008
:103D7000502080F31188BFF34F8FBFF36F8FFEE7A2
:103D8000704700008800002004ED00E00849486802
:103D900028B1401E486001D180F31188704750203F
:103DA00080F31188BFF34F8FBFF36F8FFEE70000E2
:103DB0008800002070B500282AD0164DA0F1080414
:103DC00060686969084207D1502080F31188BFF309
:103DD0004F8FBFF36F8FFEE722683AB1502080F318
:103DE0001188BFF34F8FBFF36F8FFEE7884360608A
:103DF00000F076F960686968084468602046FFF75B
:103E0000DBFC2869401C2861BDE8704000F004BE5E
:103E100070BD0000680000204FF0E020002101612B
:103E2000816105494FF47A720968B1FBF2F1491ECC
:103E300041610721016170471000002010B5FCF7B7
:103E40000BFA114910280ED300F1E02090F8F0038E
:103E50000A78904207D2502080F31188BFF34F8F29
:103E6000BFF36F8FFEE709480068896800F4E060DF
:103E7000884207D9502080F31188BFF34F8FBFF3DA
:103E80006F8FFEE710BD0000880000200CED00E001
:103E900010B5084B002200BF53F832401CB1521C31
:103EA000082AF9D310BD43F8321003EBC201486071
:103EB00010BD00002C02002070B515460E460446C9
:103EC000FFF744FF94F944100020491C01D184F805
:103ED000440094F94510491C01D184F84500FFF7CE
:103EE00055FFA06B28B92A46314604F1240000F0A2
:103EF00097F82046BDE87040FFF70CBE10B50200F1
:103F000014D00F48006B38B1502080F31188BFF3F4
:103F10004F8FBFF36F8FFEE700F0E2F800211046ED
:103F2000FFF75EFA00F078FD002807D105494FF051
:103F300080500860BFF34F8FBFF36F8F10BD00003C
:103F40001400002004ED00E070B50D4604000BD015
:103F500095B11E4A106BB8B1502080F31188BFF3A1
:103F60004F8FBFF36F8FFEE7502080F31188BFF3B0
:103F70004F8FBFF36F8FFEE7502080F31188BFF3A0
:103F80004F8FBFF36F8FFEE700F0AAF8D268236867
:103F90005919934204D98B420AD9914202D807E0B9
:103FA0008B42FAD9881A21600021FFF719FA00E044
:103FB000216000F031FD002807D105494FF0805005
:103FC0000860BFF34F8FBFF36F8F70BD14000020E8
:103FD00004ED00E002490A6A0260C9684160704766
:103FE0001400002001490120C8617047140000201E
:103FF00010B50C4650B1094909681831FFF782FE27
:104000002046BDE810400121FFF7EAB9502080F3B7
:104010001188BFF34F8FBFF36F8FFEE714000020AE
:1040200070B514460D4668B10A4909681831FFF7A2
:1040300081FE0CB14FF0FF3521462846BDE87040A7
:10404000FFF7CEB9502080F31188BFF34F8FBFF335
:104050006F8FFEE71400002030B587B00024039472
:1040600005AA04A903A80494FFF726FEDDE90301CD
:104070000094CDE90110002315A11748059A00F01E
:10408000A7FB164D0028E8621FD000F027FD01288D
:1040900009D0401C19D1502080F31188BFF34F8FF5
:1040A000BFF36F8FFEE7502080F31188BFF34F8F6F
:1040B000BFF36F8F4FF0FF30A86201206861EC60A2
:1040C00007B0BDE8304000F045B807B030BD000093
:1040D00049444C45000000007936000814000020D7
:1040E0000248016B491C0163704700001400002066
:1040F000164810B5016B11B10121C16110BD00213D
:10410000C1610169124A01E0B9B1491E01EB8103A5
:1041100052F82330002BF7D001EB810302EB83022E
:1041200002F1080453685B685360A34201D15B68E5
:104130005360DA680260016110BD502080F311887D
:10414000BFF34F8FBFF36F8FFEE700001400002016
:104150006C0200201CB537480168374A914207D1EC
:10416000502080F31188BFF34F8FBFF36F8FFEE7AE
:1041700000683149491E884207D1502080F31188D8
:10418000BFF34F8FBFF36F8FFEE72C490878019084
:10419000FF20087008788DF800009DF800009DF859
:1041A000002000F0F000904207D0502080F31188EA
:1041B000BFF34F8FBFF36F8FFEE79DF80000204CD9
:1041C00000F0500020700720A06005E09DF800205E
:1041D00052008DF80020401E9DF800201206F5D4F4
:1041E000A060032807D0502080F31188BFF34F8FC1
:1041F000BFF36F8FFEE74FF44070A0600198087026
:104200000C482030016841F470010160016841F000
:1042100070410160FFF700FE00206060FBF7E4FFE3
:104220000848016841F040410160FBF7C9FF0020E8
:104230001CBD000000ED00E071C20F4100E400E091
:104240008800002034EF00E010B5502080F3118882
:10425000BFF34F8FBFF36F8F00F0FAFA18B1044924
:104260004FF080500860002080F3118810BD0000DE
:1042700004ED00E0F8B517460E46050013D005FB27
:1042800006F05030FFF77CFC04000AD0002084F8D0
:10429000460004F150023B46314628460094FFF7A1
:1042A0001DFA2046F8BD502080F31188BFF34F8FD0
:1042B000BFF36F8FFEE738B5049D18B153B1CAB193
:1042C00081B120E0502080F31188BFF34F8FBFF3FE
:1042D0006F8FFEE7502080F31188BFF34F8FBFF33D
:1042E0006F8FFEE7502080F31188BFF34F8FBFF32D
:1042F0006F8FFEE739B1502080F31188BFF34F8FE5
:10430000BFF36F8FFEE750241C46012384F846302C
:104310002B460094FFF7E2F9204638BD70B50D46F4
:10432000040025D0FFF712FDD4E90F20216802FB1D
:104330000011A1600021A163216861600A46D4E9EF
:104340000F01401E00FB0121E16021464FF0FF30CC
:1043500001F8440F487004F110008DB1FFF7C4FC60
:1043600004F12400FFF7C0FCFFF710FD012070BD31
:10437000502080F31188BFF34F8FBFF36F8FFEE79C
:1043800021690029F0D000F00FFB0028ECD004498F
:104390004FF080500860BFF34F8FBFF36F8FE3E79C
:1043A00004ED00E02DE9FF4782B01D468A464FF03C
:1043B0000008040003D0BAF1000F08D011E050202B
:1043C00080F31188BFF34F8FBFF36F8FFEE7206C30
:1043D00038B1502080F31188BFF34F8FBFF36F8F38
:1043E000FEE7022D0AD1E06B012807D0502080F3B0
:1043F0001188BFF34F8FBFF36F8FFEE700F014FA01
:104400003F4F4FF000094FF0805648B9049838B13B
:10441000502080F31188BFF34F8FBFF36F8FFEE7FB
:10442000FFF794FCA06BE16B884207D3022D05D007
:104430000498D0B1B8F1000F1AD01EE02A465146B8
:104440002046FFF7A2F8616A19B104F1240000F0D8
:10445000ABFA20B13E60BFF34F8FBFF36F8FFFF712
:1044600095FC012006B0BDE8F087FFF78FFC22E045
:104470006846FFF7AFFD4FF00108FFF787FCFFF735
:104480002FFEFFF763FC94F94400401C01D184F82F
:10449000449094F94500401C01D184F84590FFF701
:1044A00075FC04A9684600F029F930B12046FFF7F1
:1044B00031FB00F0B1FA0020D4E7FFF747FCA06B16
:1044C000E16B884213D1FFF761FC04F110000499FD
:1044D000FFF78EFD2046FFF71DFB00F09DFA002838
:1044E0009ED13E60BFF34F8FBFF36F8F98E7FFF70A
:1044F0004DFC2046FFF70EFB00F08EFA90E700001F
:1045000004ED00E02DE9F0471F469046894604007F
:1045100003D0B9F1000F08D011E0502080F31188CA
:10452000BFF34F8FBFF36F8FFEE7206C38B1502081
:1045300080F31188BFF34F8FBFF36F8FFEE7022F19
:104540000AD1E06B012807D0502080F31188BFF317
:104550004F8FBFF36F8FFEE7FFF770FC5020EFF334
:10456000118680F31188BFF34F8FBFF36F8FA06B5D
:10457000E16B884206D3022F04D0002086F3118815
:10458000BDE8F08794F94550A06B3A46494620466D
:10459000FEF7FBFF681C04D06D1C84F84550012019
:1045A000ECE7606A0028FAD004F1240000F0FCF97E
:1045B0000028F4D0B8F1000FF1D00121C8F80010A4
:1045C000EDE700002DE9F747002683B08A46040096
:1045D00003D0BAF1000F08D011E0502080F3118809
:1045E000BFF34F8FBFF36F8FFEE7206C38B15020C1
:1045F00080F31188BFF34F8FBFF36F8FFEE700F09A
:1046000013F9DFF8F4804FF000094FF0805748B9F4
:10461000059838B1502080F31188BFF34F8FBFF356
:104620006F8FFEE7FFF792FBA56BC5B151462046A1
:10463000FEF798FF6D1EA563206950B104F11000CC
:1046400000F0B2F928B1C8F80070BFF34F8FBFF384
:104650006F8FFFF79BFB012006B0BDE8F087059840
:1046600008B11EB106E0FFF791FB27E06846FFF7AF
:10467000B1FC0126FFF78AFBFFF732FDFFF766FB6F
:1046800094F94400401C01D184F8449094F9450009
:10469000401C01D184F84590FFF778FB05A96846D6
:1046A00000F02CF8002820460AD0FFF733FA00F07B
:1046B000B3F92046FFF7C2F80028B3D00020CBE7BB
:1046C000FFF7BCF890B104F124000599FFF790FCC6
:1046D0002046FFF71FFA00F09FF90028A2D1C8F882
:1046E0000070BFF34F8FBFF36F8F9BE72046FFF73C
:1046F00011FA00F091F995E704ED00E02DE9F041A1
:104700000C46050011D0C4B1FFF720FB174BDA6847
:104710006E682068911B471C17D02F681B6A9F4248
:1047200019D0964217D8012410E0502080F3118848
:10473000BFF34F8FBFF36F8FFEE7502080F31188D8
:10474000BFF34F8FBFF36F8FFEE70024FFF71EFB11
:104750002046BDE8F081884205D9401A20602846ED
:10476000FFF738FCF1E700202060DCE714000020B0
:104770002DE9FF5F8346DDE90E87994616468A4696
:104780009000FFF7FDF905001CD05C20FFF7F8F959
:10479000040014D00020256384F85900CDE90240BC
:1047A000CDE900874B46324651465846FEF7A8FFF2
:1047B0002046FEF743FE012004B000F006B828466C
:1047C000FFF7F8FA4FF0FF30F6E730BCBDE8C09FC6
:1047D000F0B585B0DDE90B640A9DA6B1DCB15C27BC
:1047E00000972663022684F85960002604AFCDE9BD
:1047F0000246CDE90057FEF783FF2046FEF71EFE76
:10480000049805B0F0BD502080F31188BFF34F8F9E
:10481000BFF36F8FFEE7502080F31188BFF34F8FF7
:10482000BFF36F8FFEE700000548416919B1006BC7
:1048300018B1002070470120704702207047000027
:10484000140000200148C0687047000014000020D8
:104850002DE9F041324C0027206B38B1A069401C93
:10486000A061FFF740FA3846BDE8F081E668761CA3
:10487000E66013D1606B006838B1502080F3118876
:10488000BFF34F8FBFF36F8FFEE7606BA16B616368
:10489000A063206A401C2062FFF7BCF8A06ADFF822
:1048A0008480864209D3606B006890B1606BC068F9
:1048B000C568686886420FD2A0622068C06A00EBB3
:1048C000800158F82100012800D90127A069F8B11A
:1048D00020E04FF0FF30EFE7281DFFF7D9F9A86A75
:1048E00018B105F11800FFF7D3F9E86A2169884289
:1048F00000D9206100EB800108EB8100291DFFF742
:1049000019FAE86A2168C96A8842CCD30127CAE744
:10491000FFF7E9F9E0690028A5D00127A3E7000027
:10492000140000206C02002070B504004FF000015C
:1049300033D01B4D2868844207D0502080F3118863
:10494000BFF34F8FBFF36F8FFEE7206D38B1401E6E
:104950002065E36CE26A9A421FD040B11DE050200E
:1049600080F31188BFF34F8FBFF36F8FFEE7201DD9
:10497000FFF78EF9E06CE062C0F13800A061E06AF8
:104980002969884200D92861064900EB800001EBC3
:104990008000211DFFF7CEF90121084670BD0000FF
:1049A000140000206C02002070B5C068C46854B1C7
:1049B00004F118000646FFF76BF9144D286B50B14F
:1049C0003146134815E0502080F31188BFF34F8F14
:1049D000BFF36F8FFEE7201DFFF75AF9E06A2969E0
:1049E000884200D928610B4900EB800001EB800070
:1049F000211DFFF79FF9E06A2968C96A884202D938
:104A00000120E86170BD002070BD0000140000208E
:104A1000F40600206C0200202DE9F0472C4D002404
:104A20002746286B38B1FFF791F9286B401E2863A1
:104A3000286B40B146E0502080F31188BFF34F8FC0
:104A4000BFF36F8FFEE7A968224E0120D1B3A6F510
:104A5000916980463068E0B1F068C46804F11800DC
:104A6000FFF716F9201DFFF713F9E06A296988425C
:104A700000D9286100EB800109EB8100211DFFF7BF
:104A800059F9E06A2968C96A8842E3D3C5F81C80ED
:104A9000E0E70CB1FEF7BEFFAC694CB14FEA080687
:104AA000FFF7D6FE00B1EE61641EF9D10020A861C7
:104AB000E86938B10849012738070860BFF34F8F0C
:104AC000BFF36F8FFFF762F93846BDE8F08700004B
:104AD00014000020F406002004ED00E010B586B0BC
:104AE000FEF714FD114C2068B8B10020039004902B
:104AF00005AA04A903A8FFF7E9F8DDE903210220CC
:104B00008DE8070000230AA10B48059AFFF760FE15
:104B1000606010B106B0012010BD502080F31188F4
:104B2000BFF34F8FBFF36F8FFEE7000050000020F0
:104B3000546D722053766300F13A00082DE9FF416D
:104B40001E46134602000A9D4FF0000016D0144C7A
:104B50002768002F0FD0CDE900130292062917DA3B
:104B6000FFF762FE02284FF000030FD000226946D3
:104B70002068FFF717FC04B0BDE8F081502080F3F7
:104B80001188BFF34F8FBFF36F8FFEE72A46EEE722
:104B90000023324669463846FFF7B4FCEBE70000D5
:104BA00050000020344C000800000000000000000D
:104BB00000000000000000000002000018000000DB
:104BC00000000000000000000000000000000000E5
:104BD0000102030406070809A0860100400D030036
:104BE000801A060000350C0040420F0080841E0031
:104BF00000093D0000127A000024F40000366E0126
:104C00000048E801006CDC0200000000010203041F
:104C1000546F67676C6553637265656E0048616EBB
:104C2000646C65506F7765724D616E6167656D6527
:104C30006E74000064656661756C745461736B001A
:104C4000604C000800000020B0000000A42900080B
:104C5000104D0008B0000020504E0000B42900089C
:104C60000000000001000000100000000000000033
:104C700000093D00000000000000000000000000EE
:104C80000000000000000000000000000000000024
:104C90000000000000000000000000000000000014
:104CA0000000000000000000000000000000000004
:104CB00000000000000000000000000000000000F4
:104CC00000000000000000000000000000000000E4
:104CD00000000000000000000000000000000000D4
:104CE000000000000000000000000000AAAAAAAA1C
:104CF00000000000000000000000000000000000B4
:104D000000000000000000000101000000000000A1
:040000050800018D61
:00000001FF
