:020000040800F2
:100000009873002081020008473200085925000833
:100010004532000885080008D53C000800000000B3
:10002000000000000000000000000000A101000826
:100030003909000800000000FD010008B53600087D
:100040009B0200089B0200089B0200089B0200081C
:100050009B0200089B0200089B0200089B0200080C
:100060009B0200083B0900089B0200089B02000855
:100070009B0200089B0200089B0200089B020008EC
:100080009B0200089B0200089B0200089B020008DC
:100090009B0200089B0200089B020008410900081F
:1000A0009B020008513700089B0200089B020008D1
:1000B0009B02000800000000000000009B020008F6
:1000C0009B0200089B0200089B0200089B0200089C
:1000D0009B020008C93C00089B0200089B02000824
:1000E0009B0200089B0200080000000000000000C6
:1000F0000000000000000000000000000000000000
:10010000000000009B020008000000009B020008A5
:1001100000000000000000009B0200089B02000895
:100120009B0200089B0200089B0200089B0200083B
:100130009B0200080000000000000000000000001A
:100140009B0200089B0200089B0200089B0200081B
:100150009B0200089B0200089B0200089B0200080B
:100160009B0200089B0200089B02000800000000A0
:100170009B0200089B0200089B0200080000000090
:100180009B0200089B0200089B020008DFF80CD0CD
:1001900000F0E6FA00480047F96200089873002072
:1001A0002C4B1968086800F05AB880F30988BFF32F
:1001B0006F8F4FF0000080F311887047000000003F
:1001C00008480068006880F308884FF0000080F35A
:1001D000148862B661B6BFF34F8FBFF36F8F00DF35
:1001E00000BF00BF08ED00E0DFF80C00016841F43B
:1001F00070010160704700BF88ED00E0EFF30980F7
:10020000BFF36F8F134B1A681EF0100F08BF20ED5D
:10021000108A20E9F04F106009B44FF0500080F3CD
:100220001188BFF34F8FBFF36F8F07F05FF84FF068
:10023000000080F3118809BC1968086800F014B840
:100240001EF0100F08BF00F014B880F30988BFF348
:100250006F8F704714000020EFF30580704730C89F
:10026000B0E8C04FFFF7A1BF30C8B0E8C04FFFF7FC
:10027000E7BFB0EC088AB0EC08CAFFF7E6BF0000A1
:100280000648804706480047FEE7FEE7FEE7FEE730
:10029000FEE7FEE7FEE7FEE7FEE7FEE74137000880
:1002A0008D0100082DE9F05F0546002092469B462F
:1002B00088460646814640241BE02846414647467C
:1002C000224600F07AF853465A46C01A914110D39C
:1002D00011461846224600F061F82D1A67EB010816
:1002E0004F4622460120002100F058F817EB000984
:1002F0004E41201EA4F10104DFDC484631462A4667
:10030000434600F000B830BCBDE8C09F10B5431AAA
:10031000934209D28318881803E010F8011D03F8EE
:10032000011D521EF9D210BD40EA01039B0703D004
:1003300009E008C9121F08C0042AFAD203E011F824
:10034000013B00F8013B521EF9D210BDD2B201E0D0
:1003500000F8012B491EFBD270470022F6E710B5CA
:1003600013460A4604461946FFF7F0FF204610BD23
:1003700030B50B46014600202022012409E021FA75
:1003800002F59D4205D303FA02F5491B04FA02F572
:100390002844151EA2F10102F1DC30BD202A04DB45
:1003A000203A00FA02F1002070479140C2F1200388
:1003B00020FA03F3194390407047202A04DB203AC7
:1003C00021FA02F00021704721FA02F3D040C2F175
:1003D000200291400843194670472DE9FE4F8046A0
:1003E00081EA0300C00F0C46009021F0004123F089
:1003F0000045B8EB0200A94105D24046214690468F
:100400001C460B46024623F00040104347D0270D00
:10041000C7F30A00C3F30A510290401A0190402822
:100420006BDAC3F3130040F4801B0098924620B1AE
:100430000023D2EB030A63EB0B0B01985946C0F182
:1004400040025046FFF7AAFF06460D465046594661
:10045000019A00F097F910EB08006141002487EA47
:10046000115284EAE7731A4340D0009A62B3019AAA
:10047000012A4FEA075215DC001B61EB02014FF025
:10048000004202EA0752CDE90042001C41F580110A
:1004900032462B4600F097F903B000F045B84046CD
:1004A0002146F9E7001B61EB0201001C41F58013B6
:1004B00000185B412018A2F5001747EB030140EA42
:1004C000D570B6196D4111E06D084FEA360645EA60
:1004D000C0754FEA0752001B61EB0201001C41F599
:1004E000801149084FEA30000019514132462B462D
:1004F00003B000F01CB800F057B90098012240008A
:100500000023D0EB020263EBE073009821464FEA30
:10051000E074B8EB000061EB0401E9E783F000430D
:100520005BE781F0004158E730BCBDE8C08F30BCCC
:10053000BDE8C04FFFF7DFBF2DE9FE4F81EA03049E
:1005400004F0004421F0004100944FF0000B23F030
:10055000004350EA01045ED052EA03045BD0C3F3C7
:100560000A54C1F30A552C44A4F2F3340194A0FBBD
:100570000254C1F3130141F48011C3F3130343F494
:10058000801301FB024400FB034E840A970A44EAED
:10059000815447EA8357A4FB076802958D0A05FB3F
:1005A00007854FEA932C04FB0C542705029D4FEA64
:1005B000065847EA1637B5EB08056EEB070C870EB1
:1005C000920E47EA811742EA8312A7FB0201B6EBBB
:1005D0000B0164EB00042B0D43EA0C335E1844EB73
:1005E0001C50DA465146E7FB0201C5F313044FEAFB
:1005F0000B3343EA14534FEA0432019C43EA0603E7
:10060000A4F10C040294009CCDE900B400F0DBF8E6
:1006100003B000F003B800200146F9E730BCBDE8A4
:10062000C08F2DE9F04D81EA030404F0004B21F066
:10063000004514464FF0000A23F0004150EA05023D
:1006400020D054EA01021DD0C5F30A570246C5F373
:100650001303C1F31300C1F30A5640F4801543F4A9
:100660008013A7EB0608101BD64608F2FD3873EB83
:10067000050002D308F1010801E092185B41B8F1CE
:10068000000F03DA00200146BDE8F08D00204FF492
:100690008011064684460EE0171B73EB050705D351
:1006A000121B63EB050306434CEA010C49084FEAB1
:1006B000300092185B4150EA0107EDD152EA030085
:1006C00012D082EA040083EA0501084305D0101B1A
:1006D000AB4106D20122002306E000224FF0004386
:1006E00002E06FF0010253101AEB06004CEB0851C8
:1006F00010EB0A0041EB0B01BDE8F04D00F054B8DF
:10070000C1F30A52C1F3130140F2FF3341F48011E7
:100710009A4202DA00200146704740F233439A427F
:10072000A2F2334202DC5242FFF747BEFFF736BE69
:1007300030B5041E71F1000404DB4FF00044404268
:1007400064EB0101141E73F1000405DB1C464FF03D
:100750000043524263EB0403994208BF904230BD0C
:10076000064C074D06E0E06840F0010394E80700FE
:1007700098471034AC42F6D3FFF70CFD7CBA000862
:100780009CBA0008202A06DBCB17203A41FA02F077
:1007900043EAE07306E041FA02F3D040C2F12002DE
:1007A000914008431946704710B5141E73F10004B8
:1007B00008DA401C41F1000192185B411A4301D153
:1007C00020F0010010BD2DE9F04D92469B4611B17D
:1007D000B1FA81F202E0B0FA80F220329046FFF7DF
:1007E000DDFD04460F4640EA0A0041EA0B0153468C
:1007F0005A46084313D0114653EA010019D0C8F1F4
:1008000040025046FFF7D9FD05460E465046594670
:100810004246FFF7C3FD084305D0012004E020460F
:100820003946BDE8F08D0020054346EAE0762C43CA
:1008300037430A986305E40AA0EB08000022FD0A8A
:1008400044EA47540A3002D500200146E9E7010591
:1008500010196941DDE9084500196941BDE8F04D0D
:10086000A2E7000001225102014800F003BA000093
:100870000008004800224FF40071014800F0FAB966
:1008800000080048FEE70146F92000F02DB80000FE
:1008900030B587B014216846FFF75FFD0F48C16C83
:1008A00041F00201C164C06C4FF4005400F002003A
:1008B00005900120CDE9004002900320084D0390EF
:1008C0006946284600F0DEF801222146284600F05D
:1008D000D1F9044801F0DAFF07B030BD0010024042
:1008E00000080048D00000200B46024615210148B0
:1008F00002F079B8D000002010B5FFF7C9FFBDE8BD
:1009000010400520FFF7BFBF70B50A4D4FF40054EB
:1009100000222146284600F0ADF90A2000F062F8D6
:1009200001222146284600F0A5F9BDE87040642068
:1009300000F058B8000800487047082000F096B84A
:100940004FF4807000F092B872B6FEE710B590F8E0
:1009500025100022022905D00421C16380F824203B
:10096000012010BD01680B6823F00E030B600168C5
:100970000B6823F001030B6090F84410046C01F045
:100980001C03012101FA03F3636080F8251080F84D
:100990002420104610BD10B590F82510002402291F
:1009A00003D00421C16301241AE001680A6822F01F
:1009B0000E020A6001680A6822F001020A6090F8DB
:1009C0004410036C01F01C02012101FA02F25A608A
:1009D00080F82510002180F82410816B01B1884730
:1009E000204610BD70B5044600F04AF90546601C6B
:1009F00002D004480078044400F042F9401BA042B1
:100A0000FAD370BD0400002008B5154AB0F5807F08
:100A100010D0082822D11078052806D8401CC0B272
:100A20001070052801D3062010701069BDE8084039
:100A300007F098BA00200B49009001200870694621
:100A4000906A06F0BCFE0098002807D006494FF0D7
:100A500080500860BFF34F8FBFF36F8F08BD000059
:100A600094000020DD00002004ED00E0044910B5F2
:100A70000A68024202D00860FFF7C6FF10BD0000FE
:100A8000140401402DE9F04FDFF8AC910023032559
:100A9000A9F1040B85B04FF0010C0F2709F1040AEE
:100AA000ABF1040EBFE000BF0CFA03F6324075D084
:100AB0000C7904F00304012C01D0022C1BD18468B2
:100AC00000945C0005FA04F80494009C24EA0804ED
:100AD0000094D1F80C80049C08FA04F8009C48EAC1
:100AE0000408C0F808804468B4430E79C6F30016C1
:100AF0009E40264346600C79E443A4070AD0C468AC
:100B00004FEA430805FA08F6B4438E6806FA08F679
:100B10002643C6600C7904F00304022C10D1DC08D3
:100B200000EB84040294246A5E074FEAD66807FA51
:100B300008F6B4430E6906FA08F62643029C2662BC
:100B400004684FEA430805FA08F6B4430E7906F044
:100B5000030606FA08F6264306604C6814F4403F84
:100B600060D0364C266E46F001062666246E23F0D1
:100B7000030604F001040094314C34440294A46848
:100B80009E074FEA167807FA08F6B443B0F1904F83
:100B900005D02C4EB04204D1012612E042E00026DE
:100BA0000FE0294EB04201D102260AE0274EB042A2
:100BB00001D1032605E0264EB04201D1042600E013
:100BC000072606FA08F62643029CA660D9F80060BC
:100BD0004C46D1F8048096435FEAC82800D51643F6
:100BE0002660DAF800405646D1F8048094435FEA64
:100BF000882800D514433460DBF800405E46D1F805
:100C0000048094435FEA883800D514433460DEF8EA
:100C100000407646D1F8048094435FEAC83800D596
:100C2000144334605B1C0A6832FA03F47FF43CAF6F
:100C300005B000F00FB800000804014000100240A9
:100C4000000001400004004800080048000C004873
:100C50000010004830BCBDE8C08F0069084000D0DB
:100C600001207047426921EA02030A4043EA024137
:100C7000816170470AB181617047816270470000ED
:100C800001488068704700000400002090F841206F
:100C9000202A24D190F84020012A20D0012280F877
:100CA0004020242280F841200268136823F00103C9
:100CB00013600268136823F480531360026813689A
:100CC0000B43136001680A6842F001020A602021A8
:100CD00080F84110002180F840100846704702203B
:100CE000704790F84120202A22D190F84020012A14
:100CF0001ED0012280F84020242280F84120026882
:100D0000136823F0010313600268136823F470630F
:100D100043EA0121116001680A6842F001020A6099
:100D2000202180F84110002180F8401008467047CB
:100D30000220704770B5040004D094F841000025EB
:100D400010B106E0012070BD84F84050204600F04C
:100D50008FF9242084F841002068016821F0010106
:100D600001606068216820F0706008612068816817
:100D700021F400418160E0680128A06830D040F48F
:100D8000044021688860E0680228206841682AD011
:100D900021F40061416020684168144A11434160B8
:100DA0002068C16821F40041C160D4E9040108430E
:100DB000A16940EA01202168C860D4E9070108431D
:100DC000216808602068016841F0010101606564E4
:100DD000202084F84100256384F84250002070BD33
:100DE00040F40040CDE741F40061D3E70080000209
:100DF0002DE9F84F044690F84100DDF828A0984608
:100E000091468B4620287ED194F8400001287AD064
:100E1000012784F84070FFF733FF06460122009057
:100E20001923D103204601F047FCE0BB222084F8BF
:100E30004100102084F8420000256564C4F8249025
:100E4000A4F82A806563618D30484FF080784FF0B8
:100E50000079FF2903D927853A46009039E0618D52
:100E6000218500903AE05946204601F00DFC13E040
:100E700001F060FCB8B92068406A616A0870606A75
:100E8000401C6062208D401E80B22085618D491E0D
:100E90006185618D01B168B1608D3246002851468F
:100EA0002046E5D100E002E001F098FCD0B101203D
:100EB00000F030B85346002280212046009601F011
:100EC000FBFB0028F3D1608DFF2804D9FF22228587
:100ED00000954346C7E7608D2085009594F828204B
:100EE0004B46C0E721682020C86121684A68084B4A
:100EF0001A404A6084F8410084F8425084F8405017
:100F00000020D5E7FFE70220D2E7000000240080A0
:100F100000E800FE18BCBDE8E08F00002DE9FF4F9F
:100F200081B0044690F84100DDF838B01F46904685
:100F300020287BD194F84000012877D0012084F844
:100F40004000FFF79DFE0646012200901923D103C1
:100F5000204601F0B1FB002853D1212084F8410044
:100F6000102084F8420000256564C4F82480678559
:100F70006563608D3A49FF274FF080794FF0007A22
:100F8000FF2802D927854B4605E0608D20850004A7
:100F90005346000C10D0226898F800009062606AF6
:100FA000401C6062608D401E6085208D401E208543
:100FB000401CC2B2009101E000220091204602993B
:100FC00001F062FB14E000BF01F033FCC8B9606AB5
:100FD000216800788862606A401C6062608D401EF3
:100FE0006085208D401E80B22085618D01B160B189
:100FF000608D3246002859462046E5D101F0EEFBCF
:10100000E0B1012005B000F02FB85B46002280213E
:101010002046009601F050FB0028F2D1608DFF2899
:1010200005D927853A464B460095C7E716E0608DFF
:101030002085009594F828205346BFE7216820209A
:10104000C86121684A68074B1A404A6084F8410029
:1010500084F8425084F840500020D3E70220D1E7C2
:101060000020008000E800FE30BCBDE8C08F00001A
:101070002DE9F0419EB00446142118A8FFF76DF940
:1010800060216846FFF769F92B4920682B4C12272D
:10109000032500264FF00408884224D180200090C8
:1010A0000D96684600F064F908B1FFF74DFCE06C5E
:1010B00040F00200E064E06C1AAA00F002001D900B
:1010C0004FF44060CDE91807012082E8210118A9FA
:1010D0001B48FFF7D7FCA06D40F48000A065A06D11
:1010E00000F4800023E01749884221D18015009048
:1010F0000E96684600F03CF908B1FFF725FCE06C5D
:1011000040F00400E064E06CCDE9185700F0040002
:10111000CDE91C80CDE91A6518A90B48FFF7B2FC90
:10112000A06D40F40000A065A06D00F400001D90CB
:101130001EB0BDE8F08100000058004000100240E1
:1011400000040048005C0040000800480248816834
:1011500002781144816070470400002010B500241B
:10116000032000F0B7F80F2000F008F808B10124C0
:1011700001E000F049F8204610BD000030B50546FA
:101180001C4887B0016E41F400310166006E06A96B
:1011900000F40030009001A800F004FB00F034FBE4
:1011A0001549164AB0FBF1F11548491E026041602D
:1011B00040F2E7320021C0E903218160816100F043
:1011C0003AFE040012D10E4800F068FE04000DD172
:1011D000192000F051F8102D07D2002229461920BD
:1011E00000F058F80748056000E0012407B02046E9
:1011F00030BD00000010024040420F00004401409A
:1012000054020020080000200B4882B0016E41F01B
:1012100001010166016E01F001010091816D41F053
:1012200080518165806D002200F0805000900F2178
:10123000901E02B000F02EB800100240002809DB1A
:1012400000F01F02012191404009800000F1E020E0
:10125000C0F88012704700280DDB00F01F0201214A
:1012600091404009800000F1E020C0F88011BFF3F8
:101270004F8FBFF36F8F7047002809DB00F01F020C
:10128000012191404009800000F1E020C0F80011E8
:1012900070470000F0B40E4B1B680C46C3F30223EA
:1012A000C3F10705042D00D90425191D072901D212
:1012B000002300E0DB1E012606FA05F1491E21404D
:1012C00099409E40761E16403143F0BC04F0F2BABD
:1012D0000CED00E0064900F0070208684FF6FF0336
:1012E000184040EA0220034A10430860704700009B
:1012F0000CED00E00000FA051649B0F5007F086823
:10130000C0F3412009D0022805D0086820F4C0604D
:1013100040F480600860002070470128FBD0086816
:1013200020F4C06040F4007008600B48322200686E
:1013300050430A4AB0FBF2F0401C00E0401E4A69EC
:10134000520501D50028F9D148694005E3D50320AD
:1013500070470000007000401000002040420F0065
:101360000248006800F4C060704700000070004050
:101370002DE9F84F044600270088B54D3E4600058C
:1013800015D5606C60B1B0F5000F04D0B0F5400F1A
:101390002BD001270AE0E86840F48030E86024E0C0
:1013A0000021201D01F0A6FF07001ED03E46206848
:1013B00080033AD5A86D4FF00008C00009D4A86D8D
:1013C00040F08050A865A86D4FF0010800F08050F3
:1013D0000090DFF880A2DAF8001041F48071CAF8BA
:1013E0000010FFF74DFC814610E0D5F88800616CD5
:1013F00020F440000843C5F88800D8E7FFF740FC18
:10140000A0EB0900022801D9032705E0DAF8000063
:10141000C005F3D5002F7DD04FEA0706B8F1000FC5
:1014200003D0A86D20F08050A8652078C00707D0B1
:10143000D5F88800216A20F003000843C5F8880029
:101440002078800707D5D5F88800616A20F00C0065
:101450000843C5F888002078400707D5D5F88800EC
:10146000A16A20F030000843C5F888002078800683
:1014700007D5D5F88800E16A20F440600843C5F834
:1014800088002088800507D5D5F88800E16B20F416
:1014900040200843C5F888002088400507D5D5F8C6
:1014A0008800216C20F440100843C5F8880020789B
:1014B000400607D5D5F88800216B20F4405008433A
:1014C000C5F888002078000607D5D5F88800616B3C
:1014D00020F440400843C5F888002088C00507D59F
:1014E000D5F88800A16B20F440300843C5F8880087
:1014F00020884FF0006780044FF0806850D5D5F801
:101500008800A16C20F040600843C5F88800A06CFA
:10151000B84200E005E03BD1E86840F48010E860A4
:101520003EE0D5F8900010F4407014D0E16D814297
:1015300011D0D5F89000D5F8901020F4407041F407
:101540008031C5F89010D5F8901021F48031C5F89D
:101550009010C5F89000C00711D0FFF791FB074627
:1015600041F2883907E000BFFFF78AFBC11B4945FC
:1015700001D9032652E7D5F890008007F4D5D5F8B5
:101580009000E16D20F440700843C5F8900045E7F5
:10159000404505D10121201D01F0ACFE00B10646F9
:1015A0002068000317D5D5F88800E16C20F0406072
:1015B0000843C5F88800E06CB84204D1E86840F4FC
:1015C0008010E86007E0404505D10121201D01F0B1
:1015D00091FE00B106462068400317D5D5F8880073
:1015E000216D20F040600843C5F88800206DB842A6
:1015F00004D1E86840F48010E86007E0404505D178
:101600000121201D01F076FE00B10646208840042D
:1016100011D5D5F88800616D20F040500843C5F819
:101620008800606DB0F1805F05D10221201D01F0BE
:1016300061FE00B106462088000406D555F8880FE3
:10164000A16D20F0804008432860304600F004B8C7
:10165000001002400070004018BCBDE8E08F0000A0
:101660002DE9F0470F4605006BD0494E306800F079
:101670000700B84209D2306820F0070038433060D4
:10168000306800F00700B8425BD12878414C8007F1
:101690000AD5A868A16801F0F001884204D9A168C0
:1016A00021F0F0010143A1602878C0072CD06868C0
:1016B000032811D0022812D0216898B149050029C9
:1016C0003FDAA16821F003010143A160FFF7D8FAD6
:1016D000804641F2883910E021688901EFE72168EE
:1016E0008903ECE78907EAE7FFF7CAFAA0EB0801EC
:1016F000494502D90320BDE8F087A068696800F079
:101700000C00B0EB810FEFD1287880070AD5A868CC
:10171000A16801F0F001884204D2A16821F0F00133
:101720000143A160306800F00700B8420BD930686F
:1017300020F0070038433060306800F00700B842FE
:1017400001D00120D7E72878400705D5A068E968CF
:1017500020F4E0600843A0602878000706D5A06860
:10176000296920F4605040EAC100A06000F05EF8F2
:10177000A168094AC1F30311515C01F01F01C8407F
:101780000649086006480068BDE8F047FFF7F6BC68
:101790000020024000100240D88000081000002005
:1017A000080000200F2202600C4A936803F0030334
:1017B0004360936803F0F0038360936803F4E0638D
:1017C000C36092684FF4E06303EAD2020261044806
:1017D000006800F007000860704700000010024039
:1017E000002002400548064900688968054AC1F39F
:1017F0000221515C01F01F01C84070471000002019
:1018000000100240188100080548064900688968F0
:10181000054AC1F3C221515C01F01F01C840704765
:1018200010000020001002401881000870B5254902
:10183000002318468A68CC6812F00C0204F00306F4
:10184000214C4FEA640509D00C2A05D0042A32D075
:10185000082A00D1284670BD012E10D10B681B0745
:1018600004D4D1F89430C3F3032302E00B68C3F32C
:101870000313164E56F82330DAB10C2AEBD1C868A0
:1018800000F00300022818D0032818D01846CA68B0
:10189000CB68C2F30212C3F306234343521CB3FBCB
:1018A000F2F2C868C0F34160401C4000B2FBF0F0A7
:1018B00070BD184670BD204670BD2046E7E728463B
:1018C000E5E70000001002400024F400E880000872
:1018D0002DE9F84304006FD0FA4DA86800F00C061B
:1018E000E86800F003072078C00664D576B10C2EB6
:1018F00001D1012F0AD0A069002828687AD040F0D1
:1019000001002860FFF7BCF980465DE02868800789
:1019100002D5A0690028DED0216A2868000703D517
:10192000286800F0F00004E0D5F89400F02202EA04
:101930001010814216D9084601F072FD00283BD1F3
:10194000286840F0080028602868216A20F0F0002C
:10195000084328606868E16920F47F4040EA01207C
:10196000686016E0286840F0080028602868216A4E
:1019700020F0F000084328606868E16920F47F40A7
:1019800040EA0120686026B9206A01F049FD00287C
:10199000D5D1FFF74BFFA968CB4AC1F30311515CC6
:1019A00001F01F01C840C9490860C9480068FFF735
:1019B000E5FB00287ED12EE0CAE000BFFFF760F90A
:1019C000A0EB0800022876D828688007F6D528689A
:1019D00040F0080028602868216A20F0F0000843E1
:1019E00028606868E16920F47F4040EA012068606F
:1019F00011E0FFE720F001002860FFF741F9804681
:101A000006E000BFFFF73CF9A0EB08000228DAD897
:101A100028688007F6D42078C00740D0082E18D058
:101A20000C2E01D1032F14D06068B0F5803F17D081
:101A3000B0F5A02F286817D020F4803028602868DF
:101A400020F4802028606068E0B1FFF719F9804633
:101A500014E02868800322D56068002878D01EE052
:101A6000286840F48030EDE740F480202860F7E7F4
:101A7000FFF706F9A0EB08006428A4D828688003C3
:101A8000F6D50CE0FFF7FCF8804605E0FFF7F8F824
:101A9000A0EB0800642896D828688003F6D4207844
:101AA00080073BD5042E11D00C2E01D1022F0DD072
:101AB000E06801E0AAE1FFE0002828681ED040F4B9
:101AC00080702860FFF7DCF807460CE028684005C6
:101AD0000CD5E0680028C1D008E000BFFFF7D0F8BF
:101AE000C01B022893D828684005F7D56868217C78
:101AF00020F0F85040EA016068600FE020F4807048
:101B00002860FFF7BDF8074605E000BFFFF7B8F80B
:101B1000C01B0228B1D828684005F7D420780007F8
:101B200029D560690028D5F8940012D040F0010052
:101B3000C5F89400FFF7A4F8074604E0FFF7A0F803
:101B4000C01B022899D8D5F894008007F6D512E07A
:101B50002BE120F00100C5F89400FFF791F807464B
:101B600005E000BFFFF78CF8C01B022885D8D5F828
:101B700094008007F6D42078400766D5A86D00272A
:101B8000C00008D4A86D40F08050A865A86D01275A
:101B900000F0805000904F480168C90512D40168D8
:101BA000814641F480710160FFF76AF8804605E0E4
:101BB000FFF766F8A0EB080002287DD8D9F80000EE
:101BC000C005F5D5A068012816D00528D5F89000E5
:101BD00017D020F00100C5F89000D5F8900020F053
:101BE000040000BFC5F89000A06841F28839C0B178
:101BF000FFF746F880460FE0D5F8900040F001006E
:101C0000F0E740F00400C5F89000F5E7FFF738F87A
:101C1000A0EB080149454FD8D5F890008007F5D5CD
:101C20000EE0FFF72DF8804606E000BFFFF728F82A
:101C3000A0EB080149453FD8D5F890008007F5D4BE
:101C40001FB1A86D20F08050A8652078800628D5A7
:101C5000606A0028D5F8980012D040F00100C5F85D
:101C60009800FFF70DF8074605E000BFFFF708F8FA
:101C7000C01B022820D8D5F898008007F6D510E0C0
:101C800020F00100C5F89800FEF7FAFF074604E0CF
:101C9000FEF7F6FFC01B02280ED8D5F89800800783
:101CA000F6D4A06AF0B3022816D00C2E7DD0286896
:101CB00020F08070286000E0A7E0FEF7E1FF044616
:101CC000A6E0000000100240D880000810000020AC
:101CD0000800002000700040E868E26A00F003019C
:101CE000914228D1216B00F0700209011039914214
:101CF00021D1626B00F4FE41B1EB022F1BD194F8AD
:101D0000382000F07841B1EBC26F14D1A18F00F4FC
:101D1000C00249084905A1F5001191420BD194F880
:101D2000401000E06AE04908490600F0C060A1F1F7
:101D3000007181424BD00C2E73D02868400170D4C2
:101D4000286820F080702860FEF79AFF064604E0BD
:101D5000FEF796FF801B022857D828688001F7D429
:101D6000F4E90B016FF00F0202EB01110843218A25
:101D70005204490802EB4151A26841EA022108439A
:101D8000217D4FF07E42490802EB41610843217BEF
:101D900040EAC160E968244A11400843E8602868C5
:101DA00040F080702860E86800E03AE040F0807021
:101DB000E860FEF765FF044605E000BFFEF760FF40
:101DC000001B022821D828688001F7D527E0286861
:101DD000800124D4286840F080702860E86840F0D2
:101DE0008070E860FEF74CFF044604E0FEF748FF11
:101DF000001B022809D828688001F7D50FE000BF32
:101E0000FEF73EFF001B022802D90320BDE8F8833D
:101E100028688001F4D4E86804490840E86000209C
:101E2000F4E70120F2E700008C809D01FCFFEEFE4C
:101E300070477047704710B5040003D094F83D0018
:101E400010B107E0012010BD002084F83C002046BE
:101E500000F022F8022084F83D00211D206801F0E6
:101E60007DFC012084F8480084F83E0084F83F009F
:101E700084F8400084F8410084F8420084F843006C
:101E800084F8440084F8450084F8460084F847004C
:101E900084F83D00002010BD7047000090F83D1010
:101EA000012901D001207047022180F83D1001680E
:101EB000CA6842F00102CA6000680B49884205D036
:101EC000B0F1804F02D00949884207D18168084AA1
:101ED0001140062906D0B1F5803F03D0016841F0DA
:101EE0000101016000207047002C014000400140CA
:101EF0000700010070472DE9F04104460068C668FC
:101F000005694FF00007A90713D5B10711D5F91ED0
:101F1000016101202077206880698007204602D077
:101F2000FFF7E8FF04E000F08BF8204600F089F8A6
:101F30002777680716D5700714D521686FF004005D
:101F40000861022020772068806910F4407F2046D5
:101F500002D0FFF7CFFF04E000F072F8204600F057
:101F600070F82777280715D5300713D521686FF04B
:101F700008000861042020772068C0698007204697
:101F800002D0FFF7B7FF04E000F05AF8204600F057
:101F900058F82777E80616D5F00614D521686FF0B3
:101FA00010000861082020772068C06910F4407F85
:101FB000204602D0FFF79EFF04E000F041F82046E3
:101FC00000F03FF82777E80708D0F00706D021682F
:101FD0006FF001000861204600F034F8280601D4B3
:101FE000A80408D5300606D521686FF402500861B0
:101FF0002046FFF71EFFE80508D5300606D5216804
:102000006FF4807008612046FFF712FF680608D55C
:10201000700606D521686FF040000861204600F088
:102020001BF8A8060AD5B00608D521686FF0200075
:1020300008612046BDE8F041FFF7FCBEBDE8F08135
:102040007047704700680349884201D1FFF77EB8A6
:102050007047000000440140704770477047704768
:102060002DE9F04102680446D0691168936840F692
:102070000F0528424FF000054FF0020605D18706F4
:102080007ED58F067CD5A16E33E1DFF894C203F0D4
:10209000010701EA0C0C57EA0C0C71D05FEAC07C16
:1020A0000CD05FEAC15C09D54FF0010CC2F820C02A
:1020B000D4F8842042F00102C4F88420820709D5B4
:1020C000DA0707D022681662D4F8842042F00402AE
:1020D000C4F8842042070AD5DA0708D0236804220E
:1020E0001A62D4F8842042F00202C4F88420020765
:1020F0000CD501F020023A4308D0236808221A6266
:10210000D4F8842042F00802C4F8842002050BD5DC
:102110004A0109D523684FF400621A62D4F884207A
:1021200042F02002C4F88420D4F88420002A36D05B
:10213000800605D5880603D5A16E09B120468847DB
:10214000D4F8840021688968490602D410F0280F69
:1021500027D0204601F048FC2068806840061BD547
:102160002068083050E8001F21F0400140E80012CC
:10217000002AF5D1606F78B16A498163606F00E031
:1021800015E0FEF708FC002809D0606F816B00E0C5
:102190002046BDE8F04108472046FFF760FFBDE854
:1021A000F0812046FFF75BFFC4F88450F7E7D4F8CE
:1021B00060C02027BCF1010F7ED15FEAC06C7BD5E7
:1021C0005FEAC16C78D510201062206880684006F4
:1021D0004FD5616F0A6850680004000C3DD0B4F818
:1021E0005830834239D9A4F85A000868006880063C
:1021F0002BD4206850E8001F21F4807140E80012C1
:10220000002AF6D12068083050E8001F21F00101B3
:1022100040E80012002AF5D12068083050E8001F7D
:1022200021F0400140E80012002AF5D1C4F8807086
:102230002566206850E8001F21F0100140E80012D8
:10224000002AF6D1606FFEF781FB6666B4F858008D
:10225000B4F85A10401A81B207E0B4F8581081421D
:102260009DD1106880069AD566662046FFF7F5FE78
:1022700095E7B4F85800B4F85A10401A81B2B4F88F
:102280005A0000288BD0002989D0226852E8000F1C
:1022900020F4907042E80003002BF6D1206808304B
:1022A00050E8002F22F0010240E80023002BF5D176
:1022B000C4F88070256600E00AE0A566226852E84E
:1022C000000F20F0100042E80003002BF6D1CBE70E
:1022D000C60209D55B0207D54FF480101062204674
:1022E000BDE8F041FFF7BABE020606D50A0604D5DE
:1022F000E16E00297FF44CAF51E74006B8D548069F
:10230000B6D52046026852E8001F21F0400142E89D
:102310000013002BF6D1C767C56600F0DDF83EE775
:1023200020010004D539000810B5040002D0E06F88
:1023300010B107E0012010BD002084F8780020468D
:1023400000F026F82420E0672068016821F00101F0
:102350000160606A10B1204601F084FA204601F065
:1023600069FB0128E7D02068416821F49041416071
:102370002068816821F02A0181602068016841F0AD
:10238000010101602046BDE8104001F0CFBA000015
:1023900010B59EB00446142118A8FDF7DEFF602199
:1023A0006846FDF7DAFF1F492068884238D10120CE
:1023B0000024009008946846FEF7DAFF08B1FEF7A3
:1023C000C3FA1948016E41F480410166016E01F4BF
:1023D00080411D91C16C41F00201C164C06C18A91B
:1023E00000F002001D90C02018900220CDE91904D1
:1023F00003201B9007201C900C48FEF743FB0C4861
:10240000416841F480314160416841F400314160EC
:10241000002205212520FEF73DFF2520FEF72CFF99
:102420001EB010BD003801400010024000040048FA
:10243000000001402DE9F8430446C06F9846164657
:102440000D46202802D00220BDE8F88395B18EB158
:102450000020C4F884002120E067FEF711FCA4F8F6
:1024600050608146A4F85260A0682027B0F5805FD4
:1024700002D003E00120E7E7206910B12E460025D5
:1024800010E000260EE08021204601F0D3FBC0B909
:10249000D6B116F8010B21680885B4F85200401E29
:1024A000A4F85200B4F852004B464FF00002CDF8A9
:1024B00000800028E7D14FF04001204601F0BAFB30
:1024C00038B1E7670320BFE735F8020BC0F3080017
:1024D000E1E7E7670020B7E77047000010B50D4956
:1024E0000DA003F0BFF90E4CA07840B10DA003F091
:1024F000B9F900F0A9FEFEF7B5F9002007E000F0F9
:10250000ABFEFEF7B7F90EA003F0ACF90120A07006
:1025100010BD00002D81000825732B2B0D0A000033
:10252000C400002053797374656D2053687574641A
:102530006F776E20496E697469617465640D0A0075
:1025400053797374656D206F70656E20496E697480
:1025500069617465640D0A00FEE701688A69D24307
:10256000920701D400228A6200688169C943C907C1
:1025700003D0816941F00101816170472DE9F04785
:102580000446006889460026816935461746C90613
:102590004FF0200841D51021C1612FE0B9F1FF3F74
:1025A0002CD0FEF76DFBC11B494502D8B9F1000FD5
:1025B00024D12068416894F8422001F48041836965
:1025C000DB431B0415D4B1F5804F12D0202A10D064
:1025D000416841F480414160FEF752FB074608E044
:1025E000FEF74EFBC01B192803D945F02005012634
:1025F00004E020688069C0438006F1D420688069C7
:10260000C043800602D5002EC8D003E016B9216869
:10261000C1F81C8045F00405012621688869C205BF
:1026200005D54FF4807245F00105CA6101264105C8
:1026300009D522684FF4806145F00805D161012673
:10264000800502D40AE0800507D521684FF40070A8
:1026500045F00205C861012600E086B12046FFF77B
:102660007CFF54F8240B4168064A11404160206AFF
:102670002843206284F81D800020A0772077304610
:10268000BDE8F08700E800FE10B5C1F3090141EA9A
:1026900002410268029C19432143506821F0004125
:1026A0004FF4806303EA5453024C23439843084396
:1026B000506010BDFF63FF032DE9F0411D46174632
:1026C0000E460446DDF8188027E04246294620469B
:1026D000FFF754FF10B10120BDE8F081681C1CD049
:1026E000FEF7CEFAA0EB0800A84200D8ADB92068EA
:1026F000806936EA00000ED00020B8420DD154F8AF
:10270000440F40F0200044F80409202060700020AD
:10271000A0702070DFE70120EFE72068806936EACB
:10272000000004D00020B842CFD00020D4E7012020
:10273000F9E700002DE9F047002591468846044658
:102740002E4620273DE04A4641462046FFF716FF29
:1027500000B1012520688169C943890619D4C5B92A
:1027600081698169C943C90612D41021C16104205D
:1027700060642068C76120684168174A1140416061
:1027800084F8417084F8426084F84060012500E0DC
:102790006664FEF775FAA0EB0901414502D8B8F16D
:1027A000000F0ED16DB920688069C043400708D57D
:1027B000606C40F02000606484F8417084F84060F0
:1027C000012520688069C043400701D5002DBAD09B
:1027D0002846BDE8F087000000E800FE70B5164608
:1027E0000D4604461EE0324629462046FFF7C6FE47
:1027F00008B1012070BDFEF743FA801BA84200D843
:1028000085B920688069C04380060BD554F8440F11
:1028100040F0200044F80409202060700020A070DF
:102820002070E6E720688069C0438006DBD4002082
:1028300070BD70B516460D46044620E03246294666
:102840002046FFF79BFE08B1012070BD681C16D022
:10285000FEF716FA801BA84200D885B92068806967
:10286000C04380070BD554F8440F40F0200044F8D3
:102870000409202060700020A0702070E4E7206828
:102880008069C0438007D9D4002070BD10B586B0E0
:10289000044614216846FDF760FD20890090012060
:1028A000019002900220039069462068FEF7EAF842
:1028B0006089009069466068FEF7E4F806B010BDD4
:1028C00070B50C460646082519E000BF00F0ECFD87
:1028D000022003F087FC04F08001304600F00BFE7C
:1028E000012003F07FFC6006040E012003F07AFC57
:1028F0000121304600F0D8FD012003F073FC6D1E6D
:10290000EDB24FF000013046E0D200F0CDFDBDE861
:102910007040022003F066BC10B50446012100F0AF
:10292000EAFD022003F05EFC0121204600F0BCFD20
:10293000012003F057FC0021204600F0DCFD0120BF
:1029400003F050FC0021204600F0AEFDBDE8104031
:10295000012003F047BC10B50446002100F0A4FD9F
:10296000022003F03FFC0021204600F0C4FD0120BE
:1029700003F038FC0121204600F096FD012003F011
:1029800031FC0121204600F0B6FDBDE810400120D9
:1029900003F028BC70B50546052400F097FD012121
:1029A000284600F081FD05E0641EA4B2012003F07A
:1029B00019FC84B1284600F080FD0028F4D1284697
:1029C00000F0A2FD0021284600F06EFD022003F079
:1029D00009FC002070BD284600F096FD2846FFF750
:1029E000BAFF012070BD2DE9F0411D4616460C4688
:1029F0000746FFF791FF6006010E3846FFF760FFBC
:102A00003846FFF7C7FF28B13846FFF7A4FF01207B
:102A1000BDE8F08131463846FFF752FF3846FFF7F0
:102A2000B9FF29463846FFF74BFF3846FFF7B2FF9C
:102A30003846FFF790FF012003F0D4FB0020E7E7C2
:102A400008B50B4D4FF0FF3422466946286804F064
:102A500005FF0028F8D09DF80000012804D00228C6
:102A6000F2D1FFF73BFDEFE700F0B4FEECE700002A
:102A7000B40000201CB505F0EDF8274E4FF090444F
:102A8000009008212046FEF7E8F824A002F0EAFEB4
:102A900005F0E0F805464FF4FA671DE0012004F068
:102AA00095FA05F0D7F8401BB84215D300F0D4FBD7
:102AB00002208DF8040000231A4601A9306804F0B2
:102AC0006FFD02E0142004F081FA08212046FEF791
:102AD000C4F80028F6D005E008212046FEF7BDF82E
:102AE0000028DBD01248007803280CD301208DF891
:102AF000040000231A4601A9306804F051FD142097
:102B000004F064FA03E00B48006804F099FB0A2122
:102B1000684604F081FAB4E7B4000020696E746F6F
:102B20005F4B65795363616E5461736B0D0A0000EE
:102B300094000020A40000202DE9F04104461D4629
:102B400016460F462A2000F037FA204600F029FAF0
:102B5000304600F026FA2B2000F02EFA384600F01E
:102B600020FA284600F01DFABDE8F0412C2000F0C4
:102B700023BA10B514460B460246FFF7DDFF204688
:102B8000BDE8104000F00DBA2DE9F04780461F4621
:102B900003F1130083B21646501E82B20C4601F1B7
:102BA000140081B24046DDF82090FFF7C5FF0AE02F
:102BB000454604E0484600F0F4F96D1CADB2B5425C
:102BC000F8D3641CA4B2BC42F2D3BDE8F087000085
:102BD0002DE9F04387B014216846FDF7BEFB2C4871
:102BE000C16C41F00201C164C16C01F002010591A8
:102BF000C16C41F00101C164C06C202600F00100ED
:102C000005900124CDE9006403254FF09048694602
:102C100003954046FDF736FF012220214046FEF78E
:102C200029F81027DFF86C90CDE900746946484612
:102C30000395FDF727FF012210214846FEF71AF8F9
:102C4000CDE90074694640460395FDF71BFF01225C
:102C500010214046FEF70EF80820CDE90004694631
:102C600003954846FDF70EFF012208214846FEF76E
:102C700001F8CDE90064694648460395FDF702FF77
:102C8000012220214846FDF7F5FF07B0BDE8F0839B
:102C9000001002400004004810B5FFF799FF4FF004
:102CA0009044002210212046FDF7E4FF002220215D
:102CB0002046FDF7DFFF642003F087FA0122202180
:102CC0002046FDF7D7FF642003F07FFA112000F0C3
:102CD00073F9782003F079FA362000F06DF9C020FE
:102CE00000F07EF93A2000F067F9052000F078F94D
:102CF000B22000F061F90C2000F072F90C2000F015
:102D00006FF9002000F06CF9332000F069F93320EE
:102D100000F066F9B72000F04FF9352000F060F9B7
:102D2000BB2000F049F9192000F05AF9C02000F04A
:102D300043F92C2000F054F9C22000F03DF90120A5
:102D400000F04EF9C32000F037F9122000F048F9E6
:102D5000C42000F031F9202000F042F9C62000F034
:102D60002BF90F2000F03CF9D02000F025F9A42029
:102D700000F036F9A12000F033F9E02000F01CF952
:102D8000D02000F02DF9042000F02AF90D2000F0E9
:102D900027F9112000F024F9132000F021F92B204D
:102DA00000F01EF93F2000F01BF9542000F018F944
:102DB0004C2000F015F9182000F012F90D2000F059
:102DC0000FF90B2000F00CF91F2000F009F9232067
:102DD00000F006F9E12000F0EFF8D02000F000F953
:102DE000042000F0FDF80C2000F0FAF8112000F0AB
:102DF000F7F8132000F0F4F82C2000F0F1F83F2051
:102E000000F0EEF8442000F0EBF8512000F0E8F874
:102E10002F2000F0E5F81F2000F0E2F81F2000F05E
:102E2000DFF8202000F0DCF8232000F0D9F8212082
:102E300000F0C2F8292000F0BFF8BDE8104001A062
:102E400002F010BD4C43445F496E697400000000FD
:102E50002DE9FF4F81B00446DDF83C9000904FEA29
:102E600059074FF00008780700D0012000EBD70089
:102E700000FB09FB203AD0B2039002980299484423
:102E8000401E83B2E019401E82B22046FFF754FE76
:102E9000002553E0B9F10C0F2AD0B9F1100F2ED054
:102EA000B9F1180F2ED0B9F1200F49D12749039855
:102EB00001EB8010002610F805A0109800284FF0B4
:102EC000010000FA06F000EA0A0022D020B12046F4
:102ED000049A0299FFF74DFE641C0098A4B2201AD0
:102EE000B84225D10298009C401C80B2029023E099
:102EF0000398174900EB400001EB8000DAE7154921
:102F0000039803E00398144900EB400001EB001024
:102F1000D0E708B1049800E00E9800F042F808F1FC
:102F20000100C0B2B0FBF7F1804607FB118050B141
:102F3000761CF6B2082EC0D36D1CADB25D45A9D388
:102F400005B000F00BB84FF00008F5E7779D0008DA
:102F500043810008B7850008A78B000830BCBDE896
:102F6000C08F2DE9FE4F9946DDE90D6714468A466C
:102F70000546DDF830800CE0CDF800804B46514628
:102F80002846CDE90167FFF763FF05EB560085B2E0
:102F9000641C2278002AEFD100F000B81EBCBDE806
:102FA000E08F10B50446000A00F01AF8E0B2BDE860
:102FB000104000F015B8000070B5084C054600221E
:102FC00010212046FDF756FE284600F009F820465D
:102FD000BDE8704001221021FDF74CBE00040048FE
:102FE00070B50E4E05460024002208213046FDF73C
:102FF00041FE280601D5012200E0002220213046B2
:10300000FDF738FE012208213046FDF733FE680641
:10301000641C050EE4B2082CE6D370BD0004004821
:1030200010B500F021F900F085FA054A00210548A5
:1030300003F0B2F904490860BDE8104000F0B6BAE8
:10304000B4800008A9360008000000202DE9F041F6
:1030500086B014216846FDF780F93B48C16C41F009
:103060008001C164C16C01F080010591C16C41F027
:103070000401C164C16C01F004010591C16C41F00F
:103080000101C164C16C01F001010591C16C41F005
:103090000201C164C16C01F002010591C16C41F0F3
:1030A0000801C164C06C4FF0904700F00800059023
:1030B000002201213846FDF7DDFD244E4FF4407516
:1030C000012229463046FDF7D5FDDFF88480002235
:1030D00004214046FDF7CEFD01240320CDE9024046
:1030E0000094694601943846FDF7CCFC4FF4847097
:1030F00000904003CDE9010469463846FDF7C2FC63
:10310000CDE9005400250295694630460395FDF748
:10311000B9FC04208DE83100694640460395FDF76F
:10312000B1FC002205210920FEF7B4F80920FEF7C2
:10313000A3F8002205211720FEF7ACF81720FEF7B0
:103140009BF806B0BDE8F08100100240000800487E
:10315000000C0048134810B5114901601249416044
:1031600000210122C0E90212016141618161C16156
:103170000162FDF7DFFD08B1FDF7E6FB002109481C
:10318000FDF784FD08B1FDF7DFFB00210548FDF7E1
:10319000A8FD002803D0BDE81040FDF7D5BB10BD49
:1031A0000058004024010020EB9B9000144810B50B
:1031B000124901601349416000210122C0E9021255
:1031C000016141618161C1610162FDF7B3FD08B137
:1031D000FDF7BAFB4FF480510948FDF757FD08B1E0
:1031E000FDF7B2FB00210648FDF77BFD002803D068
:1031F000BDE81040FDF7A8BB10BD0000005C00401A
:1032000078010020411570000D4810B50B49016090
:103210004FF461214160002181600C22C160C0E94E
:1032200004128161C16101624162FFF77DF80028EB
:1032300003D0BDE81040FDF787BB10BD003801404A
:10324000CC010020FEE7FEE7002204210148FDF743
:1032500011BD0000000C0048012204210148FDF7C7
:1032600009BD0000000C004810B500220121032018
:1032700004F0FEF80D4C206270B10DA002F0F2FADD
:1032800000220C210A2004F0F3F8606250B1BDE87E
:1032900010400DA002F0E6BA11A002F0E3FAFDF72B
:1032A00053FBEDE7BDE81040FDF74EBB9400002056
:1032B000B0B4BCFCB6D3C1D0B4B4BDA8B3C9B9A630
:1032C000A3A10D0A00000000B4ABB8D0C6F7B6D376
:1032D000C1D0B4B4BDA8B3C9B9A6A3A10D0A00005A
:1032E000B6D3C1D0B4B4BDA8CAA7B0DCA3A10D0A9F
:1032F000000000002DE9F041444C05468846E06896
:103300000026810728680DD0E16801F003018142A1
:1033100016D1A8B1E0686968C0F30210401C884269
:103320000ED120E0012804D0022805D0032807D1BF
:1033300008E02168890701E021684905002907DBC9
:1033400001265FE02168890302D421684903F5E77B
:10335000E1686A686FF00F0321F0730103EB02125A
:1033600011430143E160206820F080602060FDF798
:1033700087FC074605E000BFFDF782FCC01B022862
:1033800037D820680001F7D4B8F1000F18D0B8F191
:10339000010F1DD0287D4FF07E41400801EB4060B9
:1033A000A96840EA01202169194A114008432061B7
:1033B000206840F080602060FDF762FC07461AE05C
:1033C000A868297B000240EAC1602169114AECE744
:1033D000288A1149400801EB4050A96840EA0120C1
:1033E00021690E4AE1E700BFFDF74AFCC01B022835
:1033F00001D9032606E020680001F5D52069A969F6
:10340000084320613046BDE8F08100000010024012
:10341000FF80FFF9FF80FF070000E0FFFF809FFFB4
:10342000F8B51C4D06460024A86DC00002D5FDF776
:1034300097FF0DE0A86D40F08050A865A86D00F0E2
:1034400080500090FDF78CFFA96D21F08051A96597
:10345000B0F5007F04D0802E07D94FF003040AE0B6
:10346000802E08D9A02E01D804E001D1022402E068
:10347000702E00D101240848016821F00701214382
:103480000160006800F00700A04201D00120F8BDF3
:103490000020F8BD001002400020024013B50122B8
:1034A00001A901F061FB1CBD4289406811B181692D
:1034B000114300E011048161704710B50189006873
:1034C000FDF7CBFB012800D0002010BD10B586B061
:1034D000044614216846FCF740FF20890090002034
:1034E0000190012002900220039069462068FDF7B8
:1034F000C9FA06B010BD0289006811B18169114393
:1035000000E011048161704710B586B004461421B3
:103510006846FCF722FF20890090112001900020CE
:1035200002900220039069462068FDF7ABFA06B0CE
:1035300010BD000010B503220021012003F098FF08
:103540000B4CA06258B10BA002F08CF90120E06294
:1035500003220021012003F08BFF606010BD0CA04E
:1035600002F080F90020E062FDF7EEF9F0E70000DC
:10357000940000207A73626DB6FED6B5D0C5BAC588
:10358000C1BFB4B4BDA8B3C9B9A6A3A10D0A0000B8
:103590007A73626DB6FED6B5D0C5BAC5C1BFB4B434
:1035A000BDA8CAA7B0DCA3A10D0A00007CB503F03A
:1035B00035FC22480224CDE900400023802220A1CE
:1035C000214804F0DDFA1D480023001DCDE900402C
:1035D00080221EA1214804F0D3FA184905200831A1
:1035E000CDE90001E50100232A461DA11F4804F092
:1035F000C7FA124803240C30CDE9004000232A46C4
:103600001BA11E4804F0BCFA0C4904201031CDE97E
:103610000001002380221AA11C4804F0B1FA0748D7
:1036200000231430CDE900406A0019A11D4804F0C0
:10363000A7FABDE87C4003F011BC00009C0000200C
:103640007461736B31000000496D00086C65645F44
:10365000666C617368696E6700000000E1620008D3
:103660006B65795F7363616E00000000752A000866
:103670006B65795F6576656E74000000412A00080D
:103680007A73626D5F6576656E7400002D6D00085B
:103690006C63645F646973706C61795F6576656E95
:1036A000740000002D6200084FF4FA74204602F006
:1036B00038FEFBE710B54FF0E020006904F0BCFADB
:1036C000012803D0BDE8104003F0BCBE10BD10B50A
:1036D00096B044216846FCF740FE142111A8FCF77F
:1036E0003CFE4FF40070FDF707FE08B172B6FEE72E
:1036F00001210804CDE90010022003240A90CDE93D
:103700000B4114210D910721CDE90E101090684650
:10371000FEF7DEF808B172B6FEE70F20CDE911041E
:1037200000204FF48061CDE913011590042111A808
:10373000FDF796FF002801D072B6FEE716B010BD67
:103740000248016841F470010160704788ED00E0B3
:103750000148FEF7D0BB00005402002070B502689B
:10376000194B4FF08046984201D0B04203D122F06D
:1037700070044A682243154C154D984205D0B0425A
:1037800003D0A04201D0A84203D122F44076CA68F7
:1037900032434E6922F08002324302608A68C2627C
:1037A0000A688262984203D0A04201D0A84201D1A7
:1037B00009690163012141610169C90703D00169F8
:1037C00021F00101016170BD002C01400040014069
:1037D0000044014010B5002003F0CEFA810012A091
:1037E00002F040F803F07AFD092001F003F804F03C
:1037F00057FB1548006803F023FD144914A002F09C
:1038000031F81548417881F001014170002003F042
:10381000B3FA810004A002F025F8BDE810400B497E
:103820000EA002F01FB80000B4ABB8D0C6F7C8CEE7
:10383000CEF1B6D1D5BBCAA3D3E03A20256C752012
:10384000D7D6BDDA0A000000A400002020810008BD
:1038500025732B2B0D0A0000C400002025732D2D8D
:103860000D0A000090F82410090706D501684A687F
:10387000436B22F400421A434A6090F82410C907AF
:1038800006D001684A68836A22F400321A434A600B
:1038900090F82410890706D501684A68C36A22F4A3
:1038A00080321A434A6090F82410490706D501680F
:1038B0004A68036B22F480221A434A6090F824106D
:1038C000C90606D501688A68836B22F480521A43C0
:1038D0008A6090F82410890606D501688A68C36B4F
:1038E00022F400521A438A6090F82410490611D538
:1038F00001684A68036C22F480121A434A60016C22
:10390000B1F5801F06D101684A68436C22F4C002F9
:103910001A434A6090F82410090606D501684A68DF
:10392000806C22F4002202434A6070472DE9F8437C
:1039300000260446C0F88460FDF7A2F9804620689E
:1039400000684FF0200500076FF07E4712D5434610
:10395000002229042046009700F06CF950B121683C
:1039600051E8000F20F0800041E80002002AF6D163
:10397000E56721E020680068400722D54346002221
:103980004FF480012046009700F054F9C8B1216837
:1039900051E8000F20F4907041E80002002AF6D1AF
:1039A0002068083050E8001F21F0010140E80012B3
:1039B000002AF5D1C4F8805084F878600320BDE86F
:1039C000F883E567C4F8805044F8606F6660267637
:1039D0000020F4E710B5806A0021A0F85A10A0F882
:1039E0005210FEF73CFB10BD016851E8002F22F495
:1039F000907241E80023002BF6D10168083151E8AC
:103A0000002F22F0010241E80023002BF5D1016EC6
:103A1000012908D1026852E8001F21F0100142E894
:103A20000013002BF6D12021C0F880100021016680
:103A3000816670472DE9F04104460168806822697B
:103A4000E3691043626900251A431043714F0A6805
:103A5000714B1A4002430A6020684168E26821F411
:103A60004051114341602168A069B94201D0226AE6
:103A700010438A6822F4306202438A6067492368EF
:103A800067488B420DD1D0F8880010F0030006D0B3
:103A9000012847D0022843D0032830D144E0012137
:103AA0002EE060498B420BD1D0F8880010F00C005A
:103AB00034D0042836D0082832D00C281FD133E067
:103AC00059498B420BD1D0F8880010F0300025D036
:103AD000102827D0202823D0302810D124E0BB4242
:103AE0000DD1D0F8880010F4406017D0B0F5806F89
:103AF00018D0B0F5006F13D0B0F5406F14D010217E
:103B00004A4A00264FF40040BB422FD171B102292E
:103B10000FD004290FD0082973D10FE00021EFE75F
:103B20000221EDE70421EBE70821E9E7FDF75AFE62
:103B300003E0104602E0FDF779FEE8B3626802EBAD
:103B4000420181425DD8B0EB023F5AD8010E030218
:103B50005008181871410023FCF7A4FB344AA0F563
:103B6000407191424DD82168C8604BE0E3694FF63F
:103B7000EF77834228D1092943D2DFE801F0050815
:103B80000B420D4242421000FDF72CFE06E0FDF70D
:103B90003BFE03E0104602E0FDF748FE60B1410045
:103BA000606801EB5001B1FBF0F0A0F11001B942E7
:103BB00027D84FF6F07100E024E00140C0F3420046
:103BC00001432068C1601DE009291AD2DFE801F035
:103BD00005080B190D1919191000FDF703FE06E071
:103BE000FDF712FE03E0104602E0FDF71FFE48B1AC
:103BF000616800EB5100B0FBF1F0A0F11001B94297
:103C000005D90125A6662846E666BDE8F08180B2A2
:103C1000A9E7000000800040F369FFEF0038014091
:103C20000010024000440040004800400024F4001E
:103C3000FFFC0F002DE9F047994617460D46044654
:103C40004FF00008089E33E0701C31D0FDF718F8E3
:103C5000A0EB0900B04218D8BEB12068016849073E
:103C600026D5802D24D0402D22D0C169C943090713
:103C70000DD4082505622046FFF7B6FEC4F884502F
:103C800084F878800120BDE8F0870320FBE7C06955
:103C9000C04300050CD421684FF400600862204640
:103CA000FFF7A2FE2020C4F8840084F87880ECE7B7
:103CB0002068C06935EA000004D00020B842C3D0B3
:103CC0000020E0E70120F9E70148FEF7C9B900004C
:103CD000CC010020FEE708B50820ADF80000012265
:103CE0006946072000F040FFBDF8000008BD000055
:103CF0000EB520490020087000F014FF002000F0ED
:103D00002DFD00F03DFD10B11BA001F0ABFD4120E9
:103D100000F04EF80F2000F02FFE44F20660ADF8E0
:103D20000000012269460C2000F01EFF4FF478507D
:103D3000ADF80000012269460E2000F015FF4FF497
:103D40008050ADF8000001226946392000F00CFFD8
:103D500001A800F036F80121002000F036FE4FF4F3
:103D6000CC4000F0D2FE0BA001F07CFD012000F061
:103D7000F5FC0EBDDC0000205A53424D383030585F
:103D800020494420636865636B206661696C210A81
:103D9000000000005A53424D383030585F436F6D79
:103DA0006D6F6E496E697420446F6E65210A000064
:103DB00008B50122ADF8000069460B2000F0D4FEE2
:103DC00008BD08B544F24330ADF800000122694651
:103DD000192000F0C9FE012269461A2000F0C4FE35
:103DE00044F24110ADF80000012269461B2000F0AA
:103DF000BBFE012269461C2000F0B6FE4FF47F6036
:103E0000ADF8000001226946252000F0ADFE08BD96
:103E10002DE9F04FFE4C95B0607800287ED001224D
:103E200002A9062000F082FDBDF80800002700B2BC
:103E3000677021784FF6FF7AC91E04F132094FF0FE
:103E4000060B4FF003080F2968D2DFE801F008B035
:103E5000ADADF3ADADADF1ADF0EFEEEDEC000007C3
:103E60000DD584F82170082000F006FD30F0010225
:103E700062F31F4503D0E749082000F025FDE54E19
:103E8000290C0D46B6F90020E3A001F0EBFCB6F9D1
:103E900002202946E0A001F0E5FC6808314601F067
:103EA0001AFA00283AD194F82200012801D00228F9
:103EB0001CD1642189F80610A9F8087089F80A70E5
:103EC000FFF716FF642000F0FBFD012000F054FD19
:103ED000C821002000F059FD102000F068FDCC49F9
:103EE0000120323101F02AF90420207094F82200D8
:103EF000072650254FF4C878032829D189F80050A7
:103F0000A9F8027089F8047089F80C50A9F80E70AD
:103F100089F81070FFF7ECFE642000E044E000F048
:103F2000CFFD022000F028FDC821084600F02DFD3D
:103F3000042000F021FDC821404600F026FD10209D
:103F400000F035FDB2490620323101F0F7F8267055
:103F500094F82200092827D189F80050A9F80270A6
:103F600089F8047089F80C50A9F80E7089F810705F
:103F7000FFF7BEFE642000F0A3FD022000F0FCFC71
:103F8000C821084600F001FD042000F0F5FCC8211E
:103F9000404600F0FAFC102000F009FD9C49062084
:103FA000323101F0CBF8267015B000F02DBBC00700
:103FB0000BD0012000F060FC20F00102954962F373
:103FC0000F062031012000F07FFC9249C6F34E001D
:103FD000203101F0E1F80546014694A001F042FCD1
:103FE000002D54D194F822000B25012810D002286E
:103FF00012D00928D8D199F80610E185B9F808102F
:10400000924830F81100208601F020FB10205AE081
:10401000FFF76EFE642002E0FFF76AFE192001F050
:10402000CFF82570C0E704E27DE145E17DE2BAE02A
:1040300064E0FFE740071FD5022000F01DFC20F0E0
:10404000010767F31F46042000F016FC20F0010072
:1040500060F30F05874201D960F31F46320C90428E
:1040600001D962F30F057A49022000F02DFCAAB2B3
:104070007849042000F028FC700C764A744901F05D
:104080003DF90546014674A001F0ECFB45B16C2DED
:104090008AD0FFF72DFE01F0CFF884F8008083E787
:1040A00094F82200032810D00928BBD199F80C10ED
:1040B000E170618D618599F800002071A08DA08567
:1040C00001F0C4FA112020706EE7FFF711FE6420A2
:1040D00001F028FA0D20207099F80C10E170B9F861
:1040E0000E205A4931F81220628599F80020227179
:1040F000B9F8020031F81000A08555E7C00732D0AA
:10410000012000F0B9FBB0FBFBF000EB40010AEA34
:10411000410094F8221060F30F064FF496750229BF
:104120000ED1A8421FD34B223A4962F30F0617461D
:104130002031012000F0C8FB94F8210000B1E78491
:1041400094F8220001280ED1B0B22A4690420AD338
:10415000304962F30F062031012000F0B5FB94F8DE
:10416000210000B1E584DFF8AC90002509F12009B9
:104170004746B6B20FE000BF05EB450101EB090071
:1041800000680002C11700EB116001123AA001F0B3
:1041900069FB6D1CADB2B6FBF7F0A842ECD801206C
:1041A00084F8210000E740072BD5022000F064FBD3
:1041B000B0FBFBF000EB40010AEA410767F31F4642
:1041C000042000F059FBB0FBFBF000EB40010AEAD1
:1041D000410060F30F05874201D960F31F46320C9E
:1041E000904201D962F30F0594F8210000B1E284F6
:1041F0001749022000F068FBAAB21649042000F01B
:1042000063FB00255F46DFF84890DFF8488035E023
:10421000DC000020745F00204952442073697A65F5
:10422000203D2025642C2025640A00005A53424D6D
:104230005F477265656E41676343616C50726F637F
:10424000657373203D2025640A00000060BA0008F1
:1042500094630020946700205A53424D5F49725284
:10426000656441676343616C50726F63657373206B
:104270003D2025640A00000025640A00360C16E083
:1042800005EB450109EB410008EB410100680968B5
:1042900000020902CA1701EB12610A12C11700EBF2
:1042A00011600112C9A001F0DDFA6D1CADB2B6FBC0
:1042B000F7F0A842E4D872E700F0CAFA06B2300775
:1042C00001D5FFF708FDF00715D0102000F0D4FA53
:1042D000B0FBFBF000EB40011AEA410262F30F056C
:1042E00003D0BC49102000F0EFFA00F0BAFA400AFF
:1042F00001D067F30F05ADB2E5840024B54F464603
:104300000CE000BF04EB44003844006840F31701A0
:10431000AFF29C0001F0A6FA641CA4B2B5FBF6F063
:10432000A042EFD840E600F093FA07B2380701D573
:10433000FFF7D1FCF8077AD0102000F09DFA20F0AA
:10434000010060F30F058146012000F095FAB0FBF3
:10435000F8F000EB400007043F0C4FEA590067F308
:104360000F06E08404D03A469B49012000F0ACFAE5
:10437000B9F1000004D002469649102000F0A4FADA
:1043800000F06FFAB1B24046B1FBF0F1E28CDFF819
:10439000448291424FF0000618D38F4F12E000BFC5
:1043A00006EB4600384408EB46010068B1F90020EE
:1043B0000002C11700EB1160011284A001F052FA53
:1043C000761CB6B2E08C8642EAD330E0DFF808A271
:1043D000814612E006EB460101EB0A0008EB4601BC
:1043E0000068B1F900200002C11700EB1160011252
:1043F00076A001F037FA761CB6B2B7FBF9F0B042FE
:10440000E8D87548C01E0744E08C86420FD2386851
:1044100008EB46010002B1F90020C11700EB116062
:1044200001126AA001F01EFA761CB6B2ECE7E58430
:10443000BAE500F00DFA04B2200701D5FFF74BFCF6
:10444000E007F5D0102000F017FA5C46B0FBF4F05E
:1044500000EB40000AEA4000574660F30F05824631
:10446000042000F009FAB0FBF4F000EB400007EA8A
:104470004009022000F000FAB0FBF4F000EB40002D
:1044800007EA400464F31F4652465249102000F0E8
:104490001BFA51494A462039042000F015FA2246F9
:1044A0004E49022000F010FA4C4501D969F31F462D
:1044B000300C824501D960F30F0500244646ADB2A9
:1044C0002EE000BF434904EB440001440023096887
:1044D0001A4641F31701109140490144096841F31C
:1044E000170111913C492039084410A9006840F394
:1044F000170012903A48006803F052F8DDE9110104
:10450000CDE9000137A2322103A8109B01F0BAF9CE
:1045100082B2642303A93748FDF78CFF641CA4B260
:10452000B5FBF6F0A042CDD83EE540072CD50120E2
:1045300000F0A2F90C26B0FBF6F000EB40000AEA0E
:1045400080075546022000F097F9B0FBF6F000EB2B
:10455000400005EA8009042000F08EF9B0FBF6F077
:1045600000EB400005EA80053A461B49012000F0B7
:10457000ABF94A461949022000F0A6F92A461E491D
:10458000042000F0A1F9E7840025DFF84CA0DFF853
:104590004C90194E474613E005EB45008119096818
:1045A00041F3170300EB090150440968006841F327
:1045B000170240F3170111A001F054F96D1CADB2C0
:1045C000E08CB0FBF7F0A842E6D8EDE425642025A6
:1045D000640A0000946B0020945F00209463002024
:1045E000B8000020256C6420256C6420256C640DC7
:1045F0000A000000CC0100209467002025642025DB
:10460000642025640A00000030BCBDE8C08FFCF7C0
:10461000E9B9000030B5ADF5017D0DA001F022F93A
:104620004FF480726946002000F080F900246D4646
:10463000214635F814200BA001F014F9641CA4B233
:10464000572CF5D30CA001F00DF90DF5017D30BD0F
:1046500044756D702072656769737465723A0D0AEE
:10466000000000007265675B307825785D203D2092
:1046700030782578200A000044756D7020726567D7
:10468000697374657220646F6E65210D0A00000005
:104690007FB50A2416460D46012816D0022814D0EC
:1046A00004283CD111E0103800EB400101EB001070
:1046B00090FBF4F0103026E0103800EB400101EBE5
:1046C000001090FBF4F0103027E0ADF80800012254
:1046D00002A90F2000F048FA01226946142000F0D8
:1046E00025F9012201A9152000F020F9012203A9D2
:1046F000272000F01BF9BDF8000000F07F00ADF8A6
:1047000000001028CFD2ADF80000BDF8040000F082
:104710007F00ADF804001028CED2ADF80400BDF83B
:104720000000BDF8041008442880BDF80C0020F0FB
:104730008F023280298802A001F094F87FBD00002A
:1047400043555252454E54203D2025642C20544957
:1047500041203D20307825780A00000008B100F0A3
:1047600005B8AFF300801720FCF775BD10B5172012
:10477000FCF764FDBDE810401720FCF77DBD00008C
:1047800038B505244FF482650FE002226946002007
:1047900000F0CCF8BDF80000A84206D1BDF8021028
:1047A00007A001F05FF8002038BD641EE4B2ECD22F
:1047B000BDF8001008A001F055F8652038BD0000D4
:1047C000436869702056657273696F6E203D2025BD
:1047D0003478210A000000004368697020494420B1
:1047E000636865636B206661696C20253478210AF3
:1047F0000000000010B5154C84F8220068B10428B0
:1048000011D0092813D00A2818D0FFF771FA032015
:10481000207000F011FD002010BD0020FFF79EFF6A
:1048200000F080F9F7E700F0C7FE0F2002E000F08B
:104830000DFF11202070FFF7EDFEECE7FFF758FAAF
:10484000C82000F00DFE0E202070E4E7DC00002000
:1048500008B501226946072000F068F8BDF800009D
:1048600008BD08B5012269463A2000F05FF8BDF89E
:10487000000000F4F05008BD08B5042818D004DC8E
:10488000012807D002280ED108E0082814D01028EB
:1048900009D115E001226946512002E00122694652
:1048A000522000F043F8BDF80000C0F3090008BD35
:1048B000012269465320F4E7012269465420F0E7BB
:1048C000012269465020ECE704280FD005DC0128BE
:1048D0000AD002280ED1622004E0082808D010284F
:1048E00008D1602000F008B86120FBE76320F9E7F9
:1048F0006420F7E77047000077B581B014460E4694
:104900004FF47A75012301AAB62107480095FCF7F8
:1049100005FB23463246B62103480095FCF768FAAA
:1049200004B0204670BD000024010020F7B582B01D
:1049300016460D4614464FF47A77012302AAB62193
:104940000C480097FCF7EAFA4FF6FF7000EA4403C0
:104950002A46B62107480097FCF74AFA03E0288860
:1049600040BA25F8020B641EA4B2F8D205B0304656
:10497000F0BD00002401002008B50122ADF80000C0
:1049800069460F2000F0F0F808BD38B50C46ADF8C8
:104990000000012269462D2000F0E6F8641EADF803
:1049A0000040012269462E2000F0DEF838BD08B52F
:1049B000C0F30900401E40F48050ADF80000012211
:1049C00069462F2000F0D0F808BD08B5891E0729D8
:1049D00021D2DFE801F01D1A17141107040040F07E
:1049E000FF0001E040F07F00ADF8000001226946C1
:1049F000102000F0B9F808BD40F03F00F4E740F0A7
:104A00001F00F1E740F00F00EEE740F00700EBE792
:104A100040F00600E8E740F00200E5E738B501F0B5
:104A20007F04012821D0022833D001F07F0141F416
:104A3000806541F40054042801D0082814D1ADF851
:104A40000000012269460F2000F08EF8ADF80050FA
:104A500001226946142000F087F8ADF800400122D9
:104A60006946152000F080F838BD0120ADF800003F
:104A7000024669460F2000F077F844F48070ADF8E4
:104A8000000001226946142000F06EF844F4006032
:104A900012E00220ADF80000012269460F2000F06C
:104AA00063F844F40070ADF8000001226946142058
:104AB00000F05AF844F48050ADF80000CFE7000051
:104AC0001CB58021ADF800100021ADF80210064998
:104AD0000322898CB1FBF0F0ADF804006946022096
:104AE00000F042F81CBD0000DC000020000301F0D3
:104AF0000F0140EA012008B51043ADF80000012283
:104B00006946232000F030F808BD08B520F08F007A
:104B1000C01DADF8000001226946272000F024F8EE
:104B200008BD0000064908B5002008708020ADF8D7
:104B3000000001226946022000F016F808BD0000BE
:104B4000DC00002008B5C10500F00F0002D540F4DC
:104B5000C87001E040F09000ADF800000122694605
:104B6000022000F001F808BD30B595B014468DF86C
:104B70000400002301AA09E00888050A02EB4300AB
:104B80005B1C457011F8025B8570DBB2A342F3D366
:104B90004FF47A700090012000EB440083B2B621FC
:104BA0000248FCF7BBF915B0204630BD24010020B7
:104BB0002DE9F04F81468DB01446C8074FF0010B28
:104BC0004FF0000A12D005200A90642009900020BE
:104BD000954D08900320EE1C0790307805F10608EB
:104BE000EF1D18B186F800A0A4F802B0880713D50D
:104BF00005200A90502009908B4D002008906D1CD4
:104C00000320EE1C0790307805F10708771D18B1D6
:104C100086F800A0A4F802B0480713D505200A9032
:104C200050200990804D00200890AD1C0320EE1C00
:104C30000790307805F10808B71D18B186F800A074
:104C4000A4F802B061887948227830F81130B9F1BF
:104C50000000C0F100010B9100DD014674A000F0DE
:104C600001FEB9F1000000DC0B986FF4C04108446C
:104C700041F232320321904208D2217186F800B00D
:104C800085F800A000200DB000F070B9207947F23F
:104C90003332C30709EB020045F6FF72029009EBBD
:104CA000020000904FD049466BA000F0DBFD029857
:104CB0004EF26661884219D9207838706DA000F0F4
:104CC000D1FD39786CA000F0CDFD98F8001070A0EF
:104CD00000F0C8FD397898F80000084441082170B8
:104CE00071A000F0BFFD63A000F0BCFD00984BF682
:104CF000FE7188421AD8217888F800105DA000F073
:104D0000B1FD39786EA000F0ADFD98F8001072A0EA
:104D100000F0A8FD397898F8000008444108217097
:104D200073A000F09FFD53A000F09CFD397898F827
:104D30000000081A401C02286BD886F800B085F8DD
:104D400000A06B209FE7287820B1012808D0022816
:104D50002CD05EE00A9820702878401C287058E01B
:104D600002984EF2666188420DD985F800A06088ED
:104D7000089A5146904201D9401E24E086F800B0BE
:104D800029706A207FE7217888F800100998207040
:104D90002878401C287037A000F064FD35A000F092
:104DA00061FD217858A000F05DFD32E000984BF6DF
:104DB000FE7290420DD885F800A06088079A51468F
:104DC000904202D2401C608023E086F800B0297037
:104DD000B7E729702078387026A000F043FD25A0A1
:104DE00000F040FD21784CA000F03CFD397898F8A7
:104DF0000000084441082170207940F00100207132
:104E000049A000F02FFD1BA000F02CFD4BA000F0EE
:104E100029FD6188054830F8112021784BA000F069
:104E200021FD6C202FE70000E100002060BA00089F
:104E300041414120707067203D2025642C2043753E
:104E40007272656E74203D2025642C2054494120E7
:104E50003D20307825780A0043757272656E7420A3
:104E600043414C2073746172742E2E2E2025640AE7
:104E7000000000000D0A00004147435F5050475FAB
:104E80004D41585F31203D2025640D0A000000008F
:104E90004147435F5050475F4D41585F32203D20AE
:104EA00025640D0A000000004147435F5050475FF2
:104EB0004D41585F33203D2025640D0A000000005D
:104EC0004147435F5050475F4D494E5F31203D2081
:104ED00025640D0A000000004147435F5050475FC2
:104EE0004D494E5F32203D2025640D0A0000000030
:104EF0004147435F5050475F4D494E5F33203D204F
:104F000025640D0A000000006D696E5F63757220F4
:104F10003D2025640D0A00006D61785F6375722085
:104F20003D2025640D0A00006C65642D3E6C6564AF
:104F30005F637572203D2025640D0A0054494120AD
:104F400043414C20446F6E65210A00004E65787421
:104F50002043757272656E74203D2025642C2054A8
:104F60004941203D20307825780A000030BCBDE85A
:104F7000C08F00002DE9F05F80461446880708D5F1
:104F80003E4F4FF00509BE1C751C00204FF0500B22
:104F90006080480709D5394F4FF005097F1CFE1C7A
:104FA000751C00204FF0500B6080618834482278D7
:104FB00030F81130B8F10000C0F100018A4600DD80
:104FC000014630A000F04EFC387860B10020387007
:104FD00084F8009086F8009085F800B0217833A01E
:104FE00000F040FC47E0B8F1000000DC504600B2A1
:104FF0006FF4C041014441F232324FF00109914255
:105000000BD20320207187F80090217842462BA014
:1050100000F028FC002000F08DB847F233318842C0
:1050200008DD207828703078217808444108217004
:1050300028A00AE0B0F5C04F09DA20783070207857
:10504000297808444108217027A000F00BFC2A7839
:105050003178501A012806DC28A000F003FC87F8FC
:1050600000906B20D7E76188054830F8112021783F
:1050700028A000F0F7FB6C20CDE70000ED00002039
:1050800060BA000841414120707067203D202564CE
:105090002C2043757272656E74203D2025642C208F
:1050A000544941203D20307825780A005B496E69DB
:1050B000745D204375723D25640A00005B4F4B5DB3
:1050C000204375723D25642C205050473D25640ACD
:1050D000000000005B484947485D204E65774375F6
:1050E000723D25640A0000005B4C4F575D20204E46
:1050F00065774375723D25640A0000005B464149AF
:105100004C5D20204D696E3D25642C204D61783D1D
:1051100025640A004E6578742043757272656E745A
:10512000203D2025642C20544941203D2030782505
:10513000780A000030BCBDE8C09F000070B505468D
:10514000144E0C46C00708D0A1790120FFF766FC79
:10515000208936F81000FFF7D8FCA80708D5217B76
:105160000220FFF75BFCE08936F81000FFF7CDFC6A
:10517000680708D521780420FFF750FC608836F8CE
:105180001000FFF7C2FC05F00700FFF7DBFC002072
:1051900070BD000060BA000810B501EB4000074A7E
:1051A00030F9020C0121FFF703FD040004D003498C
:1051B0000120891FFFF7C2FF204610BD1401002007
:1051C0003EB5FFF77DFC1A4C0120A179FFF726FCC4
:1051D0002089184931F81000FFF797FC02AA01A9AD
:1051E0000120FFF755FA0120FFF7C6FB0121C80394
:1051F000FFF7EBFB002103220846FFF777FC4FF493
:1052000078710020FFF7C1FB4FF49670FFF7CFFBDA
:105210004FF48870ADF80000012269463E20FFF788
:10522000A3FCFFF7F7F90120FFF78CFC3EBD00005F
:105230000E01002060BA000810B50A20FFF740FCFC
:1052400000210120FFF7EAFB01210020FFF7BDFB51
:10525000002211461046FFF749FC00210220FFF70B
:10526000DDFB01210020FFF7B0FB002211461046B4
:10527000FFF73CFC28210420FFF7D0FB43F6100485
:105280002046FFF742FC01210020FFF79EFB002291
:1052900011461046FFF72AFC28210820FFF7BEFB25
:1052A0002046FFF732FC01210020FFF78EFB002291
:1052B00011461046FFF71AFC20214FF47870FFF7D3
:1052C00064FB1020FFF773FBFFF7A4F9BDE8104063
:1052D0000820FFF737BC10B5012241F26E73841A23
:1052E00031F9144004F6B7349C4201D8672010BD50
:1052F000521CD2B2042AF2D3002010BD2DE9F04195
:10530000054602EB45002C4E30F9027C8846307988
:10531000032811D029A000F0A5FA29A000F0A2FAD4
:10532000324604213846FFF725FE044632783946D6
:105330002AA000F097FA00E0002421462EA000F0F9
:1053400091FA08EB450030F9027C307C032812D03A
:105350001AA000F087FA2DA000F084FA164A022164
:105360000C323846FFF706FE0546327B39462FA041
:1053700000F078FA00E00025294633A000F072FA28
:1053800054EA050006D06C2C00D145B16C2D03D039
:105390005DB12846BDE8F0810CB16C2C08D10649FE
:1053A0000620FFF7CBFE6C20F4E76C2C02D00CB18A
:1053B0002046EFE70020EDE70E0100200D0A000077
:1053C0005A53424D5F41676343616C50726F63652E
:1053D000737320666F722049520D0A007261776400
:1053E0006174203D2025642C49525F637572203D15
:1053F0002025640D0A0000004952204147432E2E0B
:105400002E72657469203D2025640A005A53424D6E
:105410005F41676343616C50726F636573732066AD
:105420006F72205245440D0A0000000072617764DB
:105430006174203D2025642C5245445F63757220C1
:105440003D2025640D0A0000524544204147432E6B
:105450002E2E72657472203D2025640A0000000023
:105460001CB5FFF72DFB2E4C0120A178FFF7D6FAD3
:10547000208DFFF74AFBE1780220FFF7CFFA608D1D
:10548000FFF743FB21790420FFF7C8FAA08DFFF74F
:105490003CFB01AA69460120FFF7FAF801AA694618
:1054A0000220FFF7F5F801AA69460420FFF7F0F89B
:1054B0000120FFF761FA0121CC032046FFF785FAAE
:1054C000002103220846FFF711FB0620FFF754FADC
:1054D00001212046FFF779FA00210F220846FFF745
:1054E00005FB0120FFF748FA4FF4A874214600207D
:1054F000FFF74BFA0220FFF73FFA2146601DFFF746
:1055000044FA0420FFF738FA21464FF42C70FFF7D5
:105510003CFAF020FFF74BFA0720FFF713FB1CBD06
:10552000DC0000207CB5FFF7CBFA214C0220217B68
:10553000FFF774FAE0891F4D35F81000FFF7E5FA20
:1055400021780420FFF76AFA608835F81000FFF729
:10555000DCFA01AA69460220FFF79AF801AA694617
:105560000420FFF795F80620FFF706FA0121C8038B
:10557000FFF72BFA00210F220846FFF7B7FA0220A7
:10558000FFF7FAF94FF4F87421460020FFF7FDF910
:105590000420FFF7F1F921460846FFF7F6F94FF42A
:1055A000DC70FFF704FA0620FFF7CCFA7CBD0000A0
:1055B0000E01002060BA000810B501210020FDF79F
:1055C0006DFF91210220FDF769FFFA20FFF71FF818
:1055D00001210020FDF762FF08210A20FDF75EFF90
:1055E00041210B20FDF75AFF4FF4C4610C20FDF759
:1055F00055FF10210F20FDF751FF00212D20FDF751
:105600004DFF40F2DF312E20FDF748FF41F25721D8
:105610002F20FDF743FF48F210313720FDF73EFF02
:105620004FF4C6413920FDF739FF40F201142146FD
:105630003E20FDF733FF21463F20FDF72FFFBDE859
:1056400010404FF464710220FDF728BF70B57D490A
:10565000002008700121FDF721FF01210020FDF746
:105660001DFF80210220FDF719FF00210320FDF717
:1056700015FF7548FA210088B0FBF1F10420FDF711
:105680000DFF08210A20FDF709FF41210B20FDF73E
:1056900005FF0F210846FDF701FF44F24334214680
:1056A0001920FDF7FBFE21461A20FDF7F7FE44F214
:1056B000411421461B20FDF7F1FE21461C20FDF779
:1056C000EDFE4FF47F612520FDF7E8FE01210F205C
:1056D000FDF7E4FE48F2020529461020FDF7DEFE44
:1056E0005A48008820F08F012720C91DFDF7D6FEFB
:1056F000574C207800F07F0040F480711420FDF7B3
:10570000CDFE207800F07F0040F400611520FDF709
:10571000C5FE07212320FDF7C1FEE9112D20FDF76D
:10572000BDFEFF212E20FDF7B9FE02210F20FDF75F
:10573000B5FE29461020FDF7B1FE4648008820F04E
:105740008F012720C91DFDF7A9FE434C207800F0EA
:105750007F0040F400711420FDF7A0FE207800F0D7
:105760007F0040F480511520FDF798FE1F21232073
:10577000FDF794FEA9112D20FDF790FEFF212E20AC
:10578000FDF78CFE04210F20FDF788FE294610202E
:10579000FDF784FE3148008820F08F012720C91DC5
:1057A000FDF77CFE2E4C207800F07F0040F48061F5
:1057B0001420FDF773FE207800F07F0040F40051C4
:1057C0001520FDF76BFE1F212320FDF767FE4FF428
:1057D00040712D20FDF762FEFF212E20FDF75EFEB9
:1057E0004FF4C4610C20FDF759FE10210F20FDF786
:1057F00055FE00212D20FDF751FEFF212E20FDF743
:105800004DFE41F295012F20FDF748FE48F2103180
:105810003720FDF743FE4FF40C513920FDF73EFED3
:1058200040F2011421463E20FDF738FE21463F207C
:10583000FDF734FEBDE8704040F296310220FDF7DE
:105840002DBE0000DC00002000010020040100202B
:10585000DE00002006010020DF00002008010020FB
:10586000E00000200FB4054B10B503A9044A0298CC
:1058700000F006F910BC5DF814FB0000156200088A
:10588000200100200FB41CB50246002007AC0029FF
:105890000BD0491ECDE90021054B6A4621460698EA
:1058A00000F0EEF8009A002111701CBC5DF814FBAA
:1058B000B56100080907090E002804DB00F1E020AB
:1058C00080F80014704700F00F0000F1E02080F82D
:1058D000141D704702E008C8121F08C1002AFAD13F
:1058E00070477047002001E001C1121F002AFBD160
:1058F000704700002DE9FF5F82B00021DDE9043030
:10590000020DDDF840B0034318D044F61050A2F267
:10591000FF3242431514119801281FD0A5EB0B004C
:10592000401C5FEA000A4FF000064E4FDFF8389146
:10593000B046504615D5CAF1000413E01198012471
:105940004AA3012801D16FEA0B010298119AC0E91C
:105950000031C0E9024206B000F08EB8CBF1000081
:10596000DFE704460021404A491842EB0450CDE9E4
:10597000001012E0E00707D032463B464046494659
:10598000FAF7DAFD8046894632463B46104619460C
:10599000FAF7D2FD06460F466410002CEAD1DDE985
:1059A0000401DDE90023BAF1000F06DAFAF7C4FDBD
:1059B00042464B46FAF7C0FD05E0FAF732FE424692
:1059C0004B46FAF72EFE04460E460022284BFAF705
:1059D000AFFE03D84FF0FF30014607E00022254B11
:1059E00020463146FAF7F9FCFAF78AFE102409E05E
:1059F000002C0ADB0A220023FAF754FC039B303206
:105A00001A55641E50EA0102F2D1641C039AC4F1D3
:105A100011031444119A012A03D0012208430DD125
:105A20000AE0084304D000204FF0110B119072E7F8
:105A3000A3EB0B056D1E0DE05B4504DD4FF000028E
:105A400005F1010504E003DA4FF00002A5F10105BC
:105A5000002AECD002981199C0E90231C0E9004552
:105A600079E70000000014400000F03F3000000023
:105A70000000F0430000E03F30BCBDE8C09F0000E4
:105A80002DE9FF4F95B09B468946064600250FE25B
:105A9000252877D100242746F84A0121059400E003
:105AA000044316F8013F203B01FA03F01042F7D1FE
:105AB00030782A2811D06FF02F033078A0F130020F
:105AC000092A16D8059A44F0020402EB820203EB7D
:105AD00042021044761C0590EFE759F8042B05921A
